{
  "contractName": "OptionDex",
  "abi": [
    {
      "anonymous": false,
      "inputs": [
        {
          "indexed": true,
          "internalType": "address",
          "name": "previousOwner",
          "type": "address"
        },
        {
          "indexed": true,
          "internalType": "address",
          "name": "newOwner",
          "type": "address"
        }
      ],
      "name": "OwnershipTransferred",
      "type": "event"
    },
    {
      "inputs": [
        {
          "internalType": "address",
          "name": "",
          "type": "address"
        }
      ],
      "name": "allocatedMarginCall",
      "outputs": [
        {
          "internalType": "uint256",
          "name": "",
          "type": "uint256"
        }
      ],
      "stateMutability": "view",
      "type": "function"
    },
    {
      "inputs": [
        {
          "internalType": "address",
          "name": "",
          "type": "address"
        }
      ],
      "name": "allocatedMarginPut",
      "outputs": [
        {
          "internalType": "uint256",
          "name": "",
          "type": "uint256"
        }
      ],
      "stateMutability": "view",
      "type": "function"
    },
    {
      "inputs": [
        {
          "internalType": "address",
          "name": "",
          "type": "address"
        }
      ],
      "name": "availableMarginCall",
      "outputs": [
        {
          "internalType": "uint256",
          "name": "",
          "type": "uint256"
        }
      ],
      "stateMutability": "view",
      "type": "function"
    },
    {
      "inputs": [
        {
          "internalType": "address",
          "name": "",
          "type": "address"
        }
      ],
      "name": "availableMarginPut",
      "outputs": [
        {
          "internalType": "uint256",
          "name": "",
          "type": "uint256"
        }
      ],
      "stateMutability": "view",
      "type": "function"
    },
    {
      "inputs": [
        {
          "internalType": "uint256",
          "name": "",
          "type": "uint256"
        }
      ],
      "name": "options",
      "outputs": [
        {
          "internalType": "uint256",
          "name": "",
          "type": "uint256"
        }
      ],
      "stateMutability": "view",
      "type": "function"
    },
    {
      "inputs": [
        {
          "internalType": "uint256",
          "name": "",
          "type": "uint256"
        }
      ],
      "name": "orderBook",
      "outputs": [
        {
          "internalType": "uint256",
          "name": "_id",
          "type": "uint256"
        },
        {
          "internalType": "uint256",
          "name": "futurePrice",
          "type": "uint256"
        },
        {
          "internalType": "uint256",
          "name": "amount",
          "type": "uint256"
        },
        {
          "internalType": "uint256",
          "name": "premium",
          "type": "uint256"
        },
        {
          "internalType": "bool",
          "name": "premiumPaid",
          "type": "bool"
        },
        {
          "internalType": "bool",
          "name": "expired",
          "type": "bool"
        },
        {
          "internalType": "bool",
          "name": "executed",
          "type": "bool"
        },
        {
          "internalType": "address",
          "name": "initiator",
          "type": "address"
        },
        {
          "internalType": "address",
          "name": "buyer",
          "type": "address"
        },
        {
          "internalType": "uint8",
          "name": "sidePosition",
          "type": "uint8"
        }
      ],
      "stateMutability": "view",
      "type": "function"
    },
    {
      "inputs": [],
      "name": "owner",
      "outputs": [
        {
          "internalType": "address",
          "name": "",
          "type": "address"
        }
      ],
      "stateMutability": "view",
      "type": "function"
    },
    {
      "inputs": [],
      "name": "renounceOwnership",
      "outputs": [],
      "stateMutability": "nonpayable",
      "type": "function"
    },
    {
      "inputs": [
        {
          "internalType": "address",
          "name": "newOwner",
          "type": "address"
        }
      ],
      "name": "transferOwnership",
      "outputs": [],
      "stateMutability": "nonpayable",
      "type": "function"
    },
    {
      "inputs": [
        {
          "internalType": "uint256",
          "name": "_amount",
          "type": "uint256"
        }
      ],
      "name": "depositMarginCall",
      "outputs": [],
      "stateMutability": "nonpayable",
      "type": "function"
    },
    {
      "inputs": [
        {
          "internalType": "uint256",
          "name": "_amount",
          "type": "uint256"
        }
      ],
      "name": "withdrawMarginCall",
      "outputs": [],
      "stateMutability": "nonpayable",
      "type": "function"
    },
    {
      "inputs": [
        {
          "internalType": "uint256",
          "name": "_amount",
          "type": "uint256"
        }
      ],
      "name": "depositMarginPut",
      "outputs": [],
      "stateMutability": "nonpayable",
      "type": "function"
    },
    {
      "inputs": [
        {
          "internalType": "uint256",
          "name": "_amount",
          "type": "uint256"
        }
      ],
      "name": "withdrawMarginPut",
      "outputs": [],
      "stateMutability": "nonpayable",
      "type": "function"
    },
    {
      "inputs": [
        {
          "internalType": "address[]",
          "name": "_token",
          "type": "address[]"
        }
      ],
      "name": "setAcceptedToken",
      "outputs": [],
      "stateMutability": "nonpayable",
      "type": "function"
    },
    {
      "inputs": [
        {
          "internalType": "uint256",
          "name": "_amount",
          "type": "uint256"
        },
        {
          "internalType": "uint8",
          "name": "_sidePosition",
          "type": "uint8"
        },
        {
          "internalType": "uint256",
          "name": "_premium",
          "type": "uint256"
        },
        {
          "internalType": "uint256",
          "name": "_futurePrice",
          "type": "uint256"
        }
      ],
      "name": "initializePosition",
      "outputs": [],
      "stateMutability": "nonpayable",
      "type": "function"
    },
    {
      "inputs": [
        {
          "internalType": "uint256",
          "name": "_id",
          "type": "uint256"
        }
      ],
      "name": "EnterPosition",
      "outputs": [],
      "stateMutability": "nonpayable",
      "type": "function"
    },
    {
      "inputs": [
        {
          "internalType": "uint256",
          "name": "_id",
          "type": "uint256"
        }
      ],
      "name": "shutDownOption",
      "outputs": [],
      "stateMutability": "nonpayable",
      "type": "function"
    },
    {
      "inputs": [
        {
          "internalType": "uint256",
          "name": "_inputedPrice",
          "type": "uint256"
        }
      ],
      "name": "setCheckPrice",
      "outputs": [],
      "stateMutability": "nonpayable",
      "type": "function"
    },
    {
      "inputs": [],
      "name": "updateCheckPrice",
      "outputs": [
        {
          "internalType": "uint256",
          "name": "",
          "type": "uint256"
        }
      ],
      "stateMutability": "view",
      "type": "function"
    },
    {
      "inputs": [
        {
          "internalType": "uint256",
          "name": "_id",
          "type": "uint256"
        }
      ],
      "name": "calculatingRemaingAmount",
      "outputs": [
        {
          "internalType": "uint256",
          "name": "",
          "type": "uint256"
        }
      ],
      "stateMutability": "view",
      "type": "function"
    },
    {
      "inputs": [
        {
          "internalType": "uint256",
          "name": "_id",
          "type": "uint256"
        }
      ],
      "name": "releaseAllocatedMarginForAPremiumPaidExpiredOption",
      "outputs": [],
      "stateMutability": "nonpayable",
      "type": "function"
    },
    {
      "inputs": [
        {
          "internalType": "uint256",
          "name": "_id",
          "type": "uint256"
        }
      ],
      "name": "Settlement",
      "outputs": [],
      "stateMutability": "nonpayable",
      "type": "function"
    }
  ],
  "bytecode": "0x60806040523480156200001157600080fd5b5062000032620000266200003860201b60201c565b6200004060201b60201c565b62000104565b600033905090565b60008060009054906101000a900473ffffffffffffffffffffffffffffffffffffffff169050816000806101000a81548173ffffffffffffffffffffffffffffffffffffffff021916908373ffffffffffffffffffffffffffffffffffffffff1602179055508173ffffffffffffffffffffffffffffffffffffffff168173ffffffffffffffffffffffffffffffffffffffff167f8be0079c531659141344cd1fd0a4f28419497f9722a3daafe3b4186f6b6457e060405160405180910390a35050565b6137e880620001146000396000f3fe608060405234801561001057600080fd5b50600436106101425760003560e01c8063a20b6e34116100b8578063e41a9de21161007c578063e41a9de214610366578063e7d83f1114610382578063edae2a831461039e578063f2fde38b146103ce578063fa194f79146103ea578063fdfc8b701461041a57610142565b8063a20b6e34146102a9578063ab584a79146102e2578063ad7deb7614610312578063b277a6e61461032e578063bd9d8e5b1461034a57610142565b80634efc9a0d1161010a5780634efc9a0d146101fb57806354b1b8711461022b57806365d4dbe214610247578063715018a6146102655780637a70845d1461026f5780638da5cb5b1461028b57610142565b806314f482a21461014757806326bc91431461016357806334efd53a1461017f578063409e22051461019b578063469272a2146101cb575b600080fd5b610161600480360381019061015c9190612d55565b610436565b005b61017d60048036038101906101789190612d55565b610587565b005b61019960048036038101906101949190612d55565b610aa3565b005b6101b560048036038101906101b09190612d55565b610c76565b6040516101c29190612d91565b60405180910390f35b6101e560048036038101906101e09190612e0a565b610c9a565b6040516101f29190612d91565b60405180910390f35b61021560048036038101906102109190612e0a565b610cb2565b6040516102229190612d91565b60405180910390f35b61024560048036038101906102409190612e70565b610cca565b005b61024f611288565b60405161025c9190612d91565b60405180910390f35b61026d611292565b005b61028960048036038101906102849190612d55565b61131a565b005b61029361174e565b6040516102a09190612ee6565b60405180910390f35b6102c360048036038101906102be9190612d55565b611777565b6040516102d99a99989796959493929190612f2b565b60405180910390f35b6102fc60048036038101906102f79190612e0a565b61183f565b6040516103099190612d91565b60405180910390f35b61032c60048036038101906103279190612d55565b611857565b005b61034860048036038101906103439190612d55565b6118dd565b005b610364600480360381019061035f9190612d55565b6119f1565b005b610380600480360381019061037b9190612d55565b611b42565b005b61039c60048036038101906103979190613120565b611d15565b005b6103b860048036038101906103b39190612d55565b611d2f565b6040516103c59190612d91565b60405180910390f35b6103e860048036038101906103e39190612e0a565b611e28565b005b61040460048036038101906103ff9190612e0a565b611f20565b6040516104119190612d91565b60405180910390f35b610434600480360381019061042f9190612d55565b611f38565b005b600260008154811061044b5761044a613169565b5b9060005260206000200160009054906101000a900473ffffffffffffffffffffffffffffffffffffffff1673ffffffffffffffffffffffffffffffffffffffff166323b872dd3330846040518463ffffffff1660e01b81526004016104b293929190613198565b6020604051808303816000875af11580156104d1573d6000803e3d6000fd5b505050506040513d601f19601f820116820180604052508101906104f591906131fb565b5080600560003373ffffffffffffffffffffffffffffffffffffffff1673ffffffffffffffffffffffffffffffffffffffff168152602001908152602001600020546105419190613257565b600560003373ffffffffffffffffffffffffffffffffffffffff1673ffffffffffffffffffffffffffffffffffffffff1681526020019081526020016000208190555050565b806004600082815260200190815260200160002060040160029054906101000a900460ff16156105ec576040517f08c379a00000000000000000000000000000000000000000000000000000000081526004016105e39061330a565b60405180910390fd5b6004600083815260200190815260200160002060040160009054906101000a900460ff1615610650576040517f08c379a000000000000000000000000000000000000000000000000000000000815260040161064790613376565b60405180910390fd5b3373ffffffffffffffffffffffffffffffffffffffff166004600084815260200190815260200160002060040160039054906101000a900473ffffffffffffffffffffffffffffffffffffffff1673ffffffffffffffffffffffffffffffffffffffff16146106f4576040517f08c379a00000000000000000000000000000000000000000000000000000000081526004016106eb906133e2565b60405180910390fd5b600060046000848152602001908152602001600020905060008160040160036101000a81548173ffffffffffffffffffffffffffffffffffffffff021916908373ffffffffffffffffffffffffffffffffffffffff16021790555060008160050160006101000a81548173ffffffffffffffffffffffffffffffffffffffff021916908373ffffffffffffffffffffffffffffffffffffffff16021790555060006004600085815260200190815260200160002060050160149054906101000a900460ff1660ff1614156108eb578060020154600660003373ffffffffffffffffffffffffffffffffffffffff1673ffffffffffffffffffffffffffffffffffffffff168152602001908152602001600020546108119190613402565b600660003373ffffffffffffffffffffffffffffffffffffffff1673ffffffffffffffffffffffffffffffffffffffff168152602001908152602001600020819055508060020154600560003373ffffffffffffffffffffffffffffffffffffffff1673ffffffffffffffffffffffffffffffffffffffff168152602001908152602001600020546108a39190613257565b600560003373ffffffffffffffffffffffffffffffffffffffff1673ffffffffffffffffffffffffffffffffffffffff16815260200190815260200160002081905550610a9e565b60016004600085815260200190815260200160002060050160149054906101000a900460ff1660ff161415610a61578060010154816002015461092e9190613436565b600860003373ffffffffffffffffffffffffffffffffffffffff1673ffffffffffffffffffffffffffffffffffffffff168152602001908152602001600020546109789190613402565b600860003373ffffffffffffffffffffffffffffffffffffffff1673ffffffffffffffffffffffffffffffffffffffff16815260200190815260200160002081905550806001015481600201546109cf9190613436565b600760003373ffffffffffffffffffffffffffffffffffffffff1673ffffffffffffffffffffffffffffffffffffffff16815260200190815260200160002054610a199190613257565b600760003373ffffffffffffffffffffffffffffffffffffffff1673ffffffffffffffffffffffffffffffffffffffff16815260200190815260200160002081905550610a9d565b60006040518060400160405280600581526020017f4572726f720000000000000000000000000000000000000000000000000000008152509050505b5b505050565b80600760003373ffffffffffffffffffffffffffffffffffffffff1673ffffffffffffffffffffffffffffffffffffffff16815260200190815260200160002054811115610b26576040517f08c379a0000000000000000000000000000000000000000000000000000000008152600401610b1d90613502565b60405180910390fd5b81600760003373ffffffffffffffffffffffffffffffffffffffff1673ffffffffffffffffffffffffffffffffffffffff16815260200190815260200160002054610b719190613402565b600760003373ffffffffffffffffffffffffffffffffffffffff1673ffffffffffffffffffffffffffffffffffffffff168152602001908152602001600020819055506002600181548110610bc957610bc8613169565b5b9060005260206000200160009054906101000a900473ffffffffffffffffffffffffffffffffffffffff1673ffffffffffffffffffffffffffffffffffffffff1663a9059cbb33846040518363ffffffff1660e01b8152600401610c2e929190613522565b6020604051808303816000875af1158015610c4d573d6000803e3d6000fd5b505050506040513d601f19601f82011682018060405250810190610c7191906131fb565b505050565b60098181548110610c8657600080fd5b906000526020600020016000915090505481565b60086020528060005260406000206000915090505481565b60066020528060005260406000206000915090505481565b60018054610cd89190613257565b600181905550600060405180610140016040528060015481526020018381526020018681526020018481526020016000151581526020016000151581526020016000151581526020013373ffffffffffffffffffffffffffffffffffffffff168152602001600073ffffffffffffffffffffffffffffffffffffffff1681526020018560ff16815250905060008460ff161415610f1257600560003373ffffffffffffffffffffffffffffffffffffffff1673ffffffffffffffffffffffffffffffffffffffff16815260200190815260200160002054851115610df1576040517f08c379a0000000000000000000000000000000000000000000000000000000008152600401610de890613597565b60405180910390fd5b84600560003373ffffffffffffffffffffffffffffffffffffffff1673ffffffffffffffffffffffffffffffffffffffff16815260200190815260200160002054610e3c9190613402565b600560003373ffffffffffffffffffffffffffffffffffffffff1673ffffffffffffffffffffffffffffffffffffffff1681526020019081526020016000208190555084600660003373ffffffffffffffffffffffffffffffffffffffff1673ffffffffffffffffffffffffffffffffffffffff16815260200190815260200160002054610eca9190613257565b600660003373ffffffffffffffffffffffffffffffffffffffff1673ffffffffffffffffffffffffffffffffffffffff16815260200190815260200160002081905550611102565b60018460ff1614156110e257600760003373ffffffffffffffffffffffffffffffffffffffff1673ffffffffffffffffffffffffffffffffffffffff168152602001908152602001600020548286610f6a9190613436565b1115610fab576040517f08c379a0000000000000000000000000000000000000000000000000000000008152600401610fa290613603565b60405180910390fd5b8185610fb79190613436565b600760003373ffffffffffffffffffffffffffffffffffffffff1673ffffffffffffffffffffffffffffffffffffffff168152602001908152602001600020546110019190613402565b600760003373ffffffffffffffffffffffffffffffffffffffff1673ffffffffffffffffffffffffffffffffffffffff1681526020019081526020016000208190555081856110509190613436565b600860003373ffffffffffffffffffffffffffffffffffffffff1673ffffffffffffffffffffffffffffffffffffffff1681526020019081526020016000205461109a9190613257565b600860003373ffffffffffffffffffffffffffffffffffffffff1673ffffffffffffffffffffffffffffffffffffffff16815260200190815260200160002081905550611101565b600060405180606001604052806025815260200161378e602591399050505b5b600981600001519080600181540180825580915050600190039060005260206000200160009091909190915055806004600060015481526020019081526020016000206000820151816000015560208201518160010155604082015181600201556060820151816003015560808201518160040160006101000a81548160ff02191690831515021790555060a08201518160040160016101000a81548160ff02191690831515021790555060c08201518160040160026101000a81548160ff02191690831515021790555060e08201518160040160036101000a81548173ffffffffffffffffffffffffffffffffffffffff021916908373ffffffffffffffffffffffffffffffffffffffff1602179055506101008201518160050160006101000a81548173ffffffffffffffffffffffffffffffffffffffff021916908373ffffffffffffffffffffffffffffffffffffffff1602179055506101208201518160050160146101000a81548160ff021916908360ff1602179055509050505050505050565b6000600354905090565b61129a612334565b73ffffffffffffffffffffffffffffffffffffffff166112b861174e565b73ffffffffffffffffffffffffffffffffffffffff161461130e576040517f08c379a00000000000000000000000000000000000000000000000000000000081526004016113059061366f565b60405180910390fd5b611318600061233c565b565b6000600460008381526020019081526020016000209050600061133b611288565b90506000826001015483600201546113539190613436565b905060008360050160149054906101000a900460ff1660ff16141561153457826001015482106114e05760018360040160016101000a81548160ff02191690831515021790555060018360040160026101000a81548160ff0219169083151502179055508260020154600660003373ffffffffffffffffffffffffffffffffffffffff1673ffffffffffffffffffffffffffffffffffffffff168152602001908152602001600020546114069190613402565b600660003373ffffffffffffffffffffffffffffffffffffffff1673ffffffffffffffffffffffffffffffffffffffff168152602001908152602001600020819055508260020154600560003373ffffffffffffffffffffffffffffffffffffffff1673ffffffffffffffffffffffffffffffffffffffff168152602001908152602001600020546114989190613257565b600560003373ffffffffffffffffffffffffffffffffffffffff1673ffffffffffffffffffffffffffffffffffffffff1681526020019081526020016000208190555061152f565b60018360040160016101000a81548160ff02191690831515021790555060018360040160026101000a81548160ff02191690831515021790555061152384612400565b61152e6001546126f4565b5b611748565b60018360050160149054906101000a900460ff1660ff16141561170b57826001015482106116b75760018360040160016101000a81548160ff02191690831515021790555060018360040160026101000a81548160ff02191690831515021790555080600860003373ffffffffffffffffffffffffffffffffffffffff1673ffffffffffffffffffffffffffffffffffffffff168152602001908152602001600020546115e19190613402565b600860003373ffffffffffffffffffffffffffffffffffffffff1673ffffffffffffffffffffffffffffffffffffffff1681526020019081526020016000208190555080600760003373ffffffffffffffffffffffffffffffffffffffff1673ffffffffffffffffffffffffffffffffffffffff1681526020019081526020016000205461166f9190613257565b600760003373ffffffffffffffffffffffffffffffffffffffff1673ffffffffffffffffffffffffffffffffffffffff16815260200190815260200160002081905550611706565b60018360040160016101000a81548160ff02191690831515021790555060018360040160026101000a81548160ff0219169083151502179055506116fa84612400565b6117056001546126f4565b5b611747565b60006040518060400160405280600581526020017f6572726f720000000000000000000000000000000000000000000000000000008152509050505b5b50505050565b60008060009054906101000a900473ffffffffffffffffffffffffffffffffffffffff16905090565b60046020528060005260406000206000915090508060000154908060010154908060020154908060030154908060040160009054906101000a900460ff16908060040160019054906101000a900460ff16908060040160029054906101000a900460ff16908060040160039054906101000a900473ffffffffffffffffffffffffffffffffffffffff16908060050160009054906101000a900473ffffffffffffffffffffffffffffffffffffffff16908060050160149054906101000a900460ff1690508a565b60056020528060005260406000206000915090505481565b61185f612334565b73ffffffffffffffffffffffffffffffffffffffff1661187d61174e565b73ffffffffffffffffffffffffffffffffffffffff16146118d3576040517f08c379a00000000000000000000000000000000000000000000000000000000081526004016118ca9061366f565b60405180910390fd5b8060038190555050565b806004600082815260200190815260200160002060040160029054906101000a900460ff1615611942576040517f08c379a00000000000000000000000000000000000000000000000000000000081526004016119399061330a565b60405180910390fd5b600060046000848152602001908152602001600020905060018160040160006101000a81548160ff021916908315150217905550338160050160006101000a81548173ffffffffffffffffffffffffffffffffffffffff021916908373ffffffffffffffffffffffffffffffffffffffff1602179055506119ec338260040160039054906101000a900473ffffffffffffffffffffffffffffffffffffffff168360030154612b9f565b505050565b6002600181548110611a0657611a05613169565b5b9060005260206000200160009054906101000a900473ffffffffffffffffffffffffffffffffffffffff1673ffffffffffffffffffffffffffffffffffffffff166323b872dd3330846040518463ffffffff1660e01b8152600401611a6d93929190613198565b6020604051808303816000875af1158015611a8c573d6000803e3d6000fd5b505050506040513d601f19601f82011682018060405250810190611ab091906131fb565b5080600760003373ffffffffffffffffffffffffffffffffffffffff1673ffffffffffffffffffffffffffffffffffffffff16815260200190815260200160002054611afc9190613257565b600760003373ffffffffffffffffffffffffffffffffffffffff1673ffffffffffffffffffffffffffffffffffffffff1681526020019081526020016000208190555050565b80600560003373ffffffffffffffffffffffffffffffffffffffff1673ffffffffffffffffffffffffffffffffffffffff16815260200190815260200160002054811115611bc5576040517f08c379a0000000000000000000000000000000000000000000000000000000008152600401611bbc90613502565b60405180910390fd5b81600560003373ffffffffffffffffffffffffffffffffffffffff1673ffffffffffffffffffffffffffffffffffffffff16815260200190815260200160002054611c109190613402565b600560003373ffffffffffffffffffffffffffffffffffffffff1673ffffffffffffffffffffffffffffffffffffffff168152602001908152602001600020819055506002600081548110611c6857611c67613169565b5b9060005260206000200160009054906101000a900473ffffffffffffffffffffffffffffffffffffffff1673ffffffffffffffffffffffffffffffffffffffff1663a9059cbb33846040518363ffffffff1660e01b8152600401611ccd929190613522565b6020604051808303816000875af1158015611cec573d6000803e3d6000fd5b505050506040513d601f19601f82011682018060405250810190611d1091906131fb565b505050565b8060029080519060200190611d2b929190612c64565b5050565b6000806004600084815260200190815260200160002090508060050160149054906101000a90505060008160050160149054906101000a900460ff1660ff161415611da95760006003548260020154611d889190613436565b90506000826003015482611d9c9190613402565b9050809350505050611e23565b60018160050160149054906101000a900460ff1660ff161415611de65760006003548260020154611dda9190613436565b90508092505050611e23565b60006040518060400160405280600581526020017f6572726f72000000000000000000000000000000000000000000000000000000815250905050505b919050565b611e30612334565b73ffffffffffffffffffffffffffffffffffffffff16611e4e61174e565b73ffffffffffffffffffffffffffffffffffffffff1614611ea4576040517f08c379a0000000000000000000000000000000000000000000000000000000008152600401611e9b9061366f565b60405180910390fd5b600073ffffffffffffffffffffffffffffffffffffffff168173ffffffffffffffffffffffffffffffffffffffff161415611f14576040517f08c379a0000000000000000000000000000000000000000000000000000000008152600401611f0b90613701565b60405180910390fd5b611f1d8161233c565b50565b60076020528060005260406000206000915090505481565b806004600082815260200190815260200160002060040160029054906101000a900460ff1615611f9d576040517f08c379a0000000000000000000000000000000000000000000000000000000008152600401611f949061330a565b60405180910390fd5b600073ffffffffffffffffffffffffffffffffffffffff166004600084815260200190815260200160002060050160009054906101000a900473ffffffffffffffffffffffffffffffffffffffff1673ffffffffffffffffffffffffffffffffffffffff161415612043576040517f08c379a000000000000000000000000000000000000000000000000000000000815260040161203a9061376d565b60405180910390fd5b3373ffffffffffffffffffffffffffffffffffffffff166004600084815260200190815260200160002060040160039054906101000a900473ffffffffffffffffffffffffffffffffffffffff1673ffffffffffffffffffffffffffffffffffffffff16146120e7576040517f08c379a00000000000000000000000000000000000000000000000000000000081526004016120de906133e2565b60405180910390fd5b600060046000848152602001908152602001600020905060016004600085815260200190815260200160002060040160026101000a81548160ff02191690831515021790555060008160050160149054906101000a900460ff1660ff1614156121e1578060020154600660003373ffffffffffffffffffffffffffffffffffffffff1673ffffffffffffffffffffffffffffffffffffffff168152602001908152602001600020546121999190613257565b600660003373ffffffffffffffffffffffffffffffffffffffff1673ffffffffffffffffffffffffffffffffffffffff168152602001908152602001600020819055506122a7565b60018160050160149054906101000a900460ff1660ff1614156122a6576000816001015482600201546122149190613436565b905080600860003373ffffffffffffffffffffffffffffffffffffffff1673ffffffffffffffffffffffffffffffffffffffff168152602001908152602001600020546122619190613257565b600860003373ffffffffffffffffffffffffffffffffffffffff1673ffffffffffffffffffffffffffffffffffffffff16815260200190815260200160002081905550505b5b60008160040160036101000a81548173ffffffffffffffffffffffffffffffffffffffff021916908373ffffffffffffffffffffffffffffffffffffffff16021790555060008160050160006101000a81548173ffffffffffffffffffffffffffffffffffffffff021916908373ffffffffffffffffffffffffffffffffffffffff160217905550505050565b600033905090565b60008060009054906101000a900473ffffffffffffffffffffffffffffffffffffffff169050816000806101000a81548173ffffffffffffffffffffffffffffffffffffffff021916908373ffffffffffffffffffffffffffffffffffffffff1602179055508173ffffffffffffffffffffffffffffffffffffffff168173ffffffffffffffffffffffffffffffffffffffff167f8be0079c531659141344cd1fd0a4f28419497f9722a3daafe3b4186f6b6457e060405160405180910390a35050565b6000600460008381526020019081526020016000209050600061242283611d2f565b905060008260050160149054906101000a900460ff1660ff16141561254e57600260018154811061245657612455613169565b5b9060005260206000200160009054906101000a900473ffffffffffffffffffffffffffffffffffffffff1673ffffffffffffffffffffffffffffffffffffffff166323b872dd8360050160009054906101000a900473ffffffffffffffffffffffffffffffffffffffff168460040160039054906101000a900473ffffffffffffffffffffffffffffffffffffffff16846040518463ffffffff1660e01b815260040161250593929190613198565b6020604051808303816000875af1158015612524573d6000803e3d6000fd5b505050506040513d601f19601f8201168201806040525081019061254891906131fb565b506126b5565b60018260050160149054906101000a900460ff1660ff1614156126785760026000815481106125805761257f613169565b5b9060005260206000200160009054906101000a900473ffffffffffffffffffffffffffffffffffffffff1673ffffffffffffffffffffffffffffffffffffffff166323b872dd8360050160009054906101000a900473ffffffffffffffffffffffffffffffffffffffff168460040160039054906101000a900473ffffffffffffffffffffffffffffffffffffffff16846040518463ffffffff1660e01b815260040161262f93929190613198565b6020604051808303816000875af115801561264e573d6000803e3d6000fd5b505050506040513d601f19601f8201168201806040525081019061267291906131fb565b506126b4565b60006040518060400160405280600581526020017f6572726f720000000000000000000000000000000000000000000000000000008152509050505b5b60018260040160016101000a81548160ff02191690831515021790555060018260040160026101000a81548160ff021916908315150217905550505050565b60006004600083815260200190815260200160002060405180610140016040529081600082015481526020016001820154815260200160028201548152602001600382015481526020016004820160009054906101000a900460ff161515151581526020016004820160019054906101000a900460ff161515151581526020016004820160029054906101000a900460ff161515151581526020016004820160039054906101000a900473ffffffffffffffffffffffffffffffffffffffff1673ffffffffffffffffffffffffffffffffffffffff1673ffffffffffffffffffffffffffffffffffffffff1681526020016005820160009054906101000a900473ffffffffffffffffffffffffffffffffffffffff1673ffffffffffffffffffffffffffffffffffffffff1673ffffffffffffffffffffffffffffffffffffffff1681526020016005820160149054906101000a900460ff1660ff1660ff1681525050905060008160e00151905060008261010001519050600083604001519050600084610120015160ff1614156129db578360400151600660008573ffffffffffffffffffffffffffffffffffffffff1673ffffffffffffffffffffffffffffffffffffffff168152602001908152602001600020546128d59190613402565b600660008573ffffffffffffffffffffffffffffffffffffffff1673ffffffffffffffffffffffffffffffffffffffff16815260200190815260200160002081905550600260008154811061292d5761292c613169565b5b9060005260206000200160009054906101000a900473ffffffffffffffffffffffffffffffffffffffff1673ffffffffffffffffffffffffffffffffffffffff1663a9059cbb83836040518363ffffffff1660e01b8152600401612992929190613522565b6020604051808303816000875af11580156129b1573d6000803e3d6000fd5b505050506040513d601f19601f820116820180604052508101906129d591906131fb565b50612b98565b600184610120015160ff161415612b5b57600084602001518560400151612a029190613436565b905080600860008673ffffffffffffffffffffffffffffffffffffffff1673ffffffffffffffffffffffffffffffffffffffff16815260200190815260200160002054612a4f9190613402565b600860008673ffffffffffffffffffffffffffffffffffffffff1673ffffffffffffffffffffffffffffffffffffffff168152602001908152602001600020819055506002600181548110612aa757612aa6613169565b5b9060005260206000200160009054906101000a900473ffffffffffffffffffffffffffffffffffffffff1673ffffffffffffffffffffffffffffffffffffffff1663a9059cbb866101000151836040518363ffffffff1660e01b8152600401612b11929190613522565b6020604051808303816000875af1158015612b30573d6000803e3d6000fd5b505050506040513d601f19601f82011682018060405250810190612b5491906131fb565b5050612b97565b60006040518060400160405280600581526020017f6572726f720000000000000000000000000000000000000000000000000000008152509050505b5b5050505050565b6002600181548110612bb457612bb3613169565b5b9060005260206000200160009054906101000a900473ffffffffffffffffffffffffffffffffffffffff1673ffffffffffffffffffffffffffffffffffffffff166323b872dd8484846040518463ffffffff1660e01b8152600401612c1b93929190613198565b6020604051808303816000875af1158015612c3a573d6000803e3d6000fd5b505050506040513d601f19601f82011682018060405250810190612c5e91906131fb565b50505050565b828054828255906000526020600020908101928215612cdd579160200282015b82811115612cdc5782518260006101000a81548173ffffffffffffffffffffffffffffffffffffffff021916908373ffffffffffffffffffffffffffffffffffffffff16021790555091602001919060010190612c84565b5b509050612cea9190612cee565b5090565b5b80821115612d07576000816000905550600101612cef565b5090565b6000604051905090565b600080fd5b600080fd5b6000819050919050565b612d3281612d1f565b8114612d3d57600080fd5b50565b600081359050612d4f81612d29565b92915050565b600060208284031215612d6b57612d6a612d15565b5b6000612d7984828501612d40565b91505092915050565b612d8b81612d1f565b82525050565b6000602082019050612da66000830184612d82565b92915050565b600073ffffffffffffffffffffffffffffffffffffffff82169050919050565b6000612dd782612dac565b9050919050565b612de781612dcc565b8114612df257600080fd5b50565b600081359050612e0481612dde565b92915050565b600060208284031215612e2057612e1f612d15565b5b6000612e2e84828501612df5565b91505092915050565b600060ff82169050919050565b612e4d81612e37565b8114612e5857600080fd5b50565b600081359050612e6a81612e44565b92915050565b60008060008060808587031215612e8a57612e89612d15565b5b6000612e9887828801612d40565b9450506020612ea987828801612e5b565b9350506040612eba87828801612d40565b9250506060612ecb87828801612d40565b91505092959194509250565b612ee081612dcc565b82525050565b6000602082019050612efb6000830184612ed7565b92915050565b60008115159050919050565b612f1681612f01565b82525050565b612f2581612e37565b82525050565b600061014082019050612f41600083018d612d82565b612f4e602083018c612d82565b612f5b604083018b612d82565b612f68606083018a612d82565b612f756080830189612f0d565b612f8260a0830188612f0d565b612f8f60c0830187612f0d565b612f9c60e0830186612ed7565b612faa610100830185612ed7565b612fb8610120830184612f1c565b9b9a5050505050505050505050565b600080fd5b6000601f19601f8301169050919050565b7f4e487b7100000000000000000000000000000000000000000000000000000000600052604160045260246000fd5b61301582612fcc565b810181811067ffffffffffffffff8211171561303457613033612fdd565b5b80604052505050565b6000613047612d0b565b9050613053828261300c565b919050565b600067ffffffffffffffff82111561307357613072612fdd565b5b602082029050602081019050919050565b600080fd5b600061309c61309784613058565b61303d565b905080838252602082019050602084028301858111156130bf576130be613084565b5b835b818110156130e857806130d48882612df5565b8452602084019350506020810190506130c1565b5050509392505050565b600082601f83011261310757613106612fc7565b5b8135613117848260208601613089565b91505092915050565b60006020828403121561313657613135612d15565b5b600082013567ffffffffffffffff81111561315457613153612d1a565b5b613160848285016130f2565b91505092915050565b7f4e487b7100000000000000000000000000000000000000000000000000000000600052603260045260246000fd5b60006060820190506131ad6000830186612ed7565b6131ba6020830185612ed7565b6131c76040830184612d82565b949350505050565b6131d881612f01565b81146131e357600080fd5b50565b6000815190506131f5816131cf565b92915050565b60006020828403121561321157613210612d15565b5b600061321f848285016131e6565b91505092915050565b7f4e487b7100000000000000000000000000000000000000000000000000000000600052601160045260246000fd5b600061326282612d1f565b915061326d83612d1f565b9250827fffffffffffffffffffffffffffffffffffffffffffffffffffffffffffffffff038211156132a2576132a1613228565b5b828201905092915050565b600082825260208201905092915050565b7f4f7074696f6e20616c7265647920657865637574656400000000000000000000600082015250565b60006132f46016836132ad565b91506132ff826132be565b602082019050919050565b60006020820190508181036000830152613323816132e7565b9050919050565b7f4f7074696f6e2063616e206e6f742062652072656d6f76656400000000000000600082015250565b60006133606019836132ad565b915061336b8261332a565b602082019050919050565b6000602082019050818103600083015261338f81613353565b9050919050565b7f43616c6c6572206973206e6f742074686520696e69746961746f720000000000600082015250565b60006133cc601b836132ad565b91506133d782613396565b602082019050919050565b600060208201905081810360008301526133fb816133bf565b9050919050565b600061340d82612d1f565b915061341883612d1f565b92508282101561342b5761342a613228565b5b828203905092915050565b600061344182612d1f565b915061344c83612d1f565b9250817fffffffffffffffffffffffffffffffffffffffffffffffffffffffffffffffff048311821515161561348557613484613228565b5b828202905092915050565b7f5573657220686173206e6f7420656e6f756768206d617267696e20746f20706560008201527f72666f726d2074686973206f7065726174696f6e000000000000000000000000602082015250565b60006134ec6034836132ad565b91506134f782613490565b604082019050919050565b6000602082019050818103600083015261351b816134df565b9050919050565b60006040820190506135376000830185612ed7565b6135446020830184612d82565b9392505050565b7f4e6f7420656e6f756768206d617267696e2063616c6c00000000000000000000600082015250565b60006135816016836132ad565b915061358c8261354b565b602082019050919050565b600060208201905081810360008301526135b081613574565b9050919050565b7f4e6f7420656e6f756768206d617267696e207075740000000000000000000000600082015250565b60006135ed6015836132ad565b91506135f8826135b7565b602082019050919050565b6000602082019050818103600083015261361c816135e0565b9050919050565b7f4f776e61626c653a2063616c6c6572206973206e6f7420746865206f776e6572600082015250565b60006136596020836132ad565b915061366482613623565b602082019050919050565b600060208201905081810360008301526136888161364c565b9050919050565b7f4f776e61626c653a206e6577206f776e657220697320746865207a65726f206160008201527f6464726573730000000000000000000000000000000000000000000000000000602082015250565b60006136eb6026836132ad565b91506136f68261368f565b604082019050919050565b6000602082019050818103600083015261371a816136de565b9050919050565b7f4f7074696f6e2063616e6e6f742062652072656d6f7665640000000000000000600082015250565b60006137576018836132ad565b915061376282613721565b602082019050919050565b600060208201905081810360008301526137868161374a565b905091905056fe53686f756c6420646566696e65203020666f722063616c6c206f72203120666f7220707574a2646970667358221220195691ead7c107874bdb77d170c3012f173916cdf8c8f781a0d9a0f95630a05164736f6c634300080b0033",
  "immutableReferences": {},
  "source": "// SPDX-License-Identifier: MIT\r\npragma solidity ^0.8.2;\r\n\r\nimport \"@openzeppelin/contracts/interfaces/IERC20.sol\";\r\nimport \"@openzeppelin/contracts/access/Ownable.sol\";\r\n\r\ncontract OptionDex is Ownable {\r\n\r\n    uint id;//id asigned to each option\r\n    address[] internal Token;// Token 0 is the underline asset Token 1 plays the role of an stablecoin\r\n    uint checkedPrice;//price that is reference at the expiration date\r\n    // uint expirationTime = 5760;//average blocks produced per day\r\n\r\n    // scope to avoid stack too deep errors\r\n    struct Option {\r\n        uint _id; //each option has an id\r\n        uint futurePrice;//future price. The price of the underline assets at the option expiration date\r\n        uint amount; //the amount of underline assets sold/bought in the option\r\n        uint premium; //value paid by the buyer to the initiator to have the right over the option\r\n        bool premiumPaid;//control if the premium was paid\r\n        bool expired;//based on the expirationDate the option can be settled (if expired) or not\r\n        bool executed; //true if the option has been settled\r\n        address initiator; //who starts the option by selling a put or a call\r\n        address buyer; //who purchases the option from the initiator\r\n        uint8 sidePosition; //call(0) or put(1) \r\n    }\r\n    //stores all the updated order in the system\r\n    mapping(uint => Option) public orderBook;\r\n    \r\n    //the user needs to deposit some underline assets to starts the operation\r\n    //user margin controls the margin to allow users to initiate options\r\n    //every deposit increases the margin, all option initialization reduces the margin\r\n    //when a option is not settled at the expiration date the initiator has its margin released\r\n    //to create call options the initiator needs to deposit the underline assets\r\n    //to create put options the initiator needs to deposit an stable coin\r\n    mapping(address => uint) public availableMarginCall;\r\n    mapping(address => uint) public allocatedMarginCall;\r\n\r\n    mapping(address => uint) public availableMarginPut;\r\n    mapping(address => uint) public allocatedMarginPut;\r\n\r\n    //receives the user deposit in the underline assets and updates the availableMarginCall\r\n    function depositMarginCall(uint _amount) public{\r\n        IERC20(Token[0]).transferFrom(msg.sender, address(this), _amount);\r\n        availableMarginCall[msg.sender] = availableMarginCall[msg.sender] + _amount;\r\n    }\r\n\r\n    function withdrawMarginCall(uint _amount) public checkMarginCall(_amount){\r\n        availableMarginCall[msg.sender] = availableMarginCall[msg.sender] - _amount;\r\n        IERC20(Token[0]).transfer(msg.sender, _amount);\r\n    }\r\n\r\n    function depositMarginPut(uint _amount) public{\r\n        IERC20(Token[1]).transferFrom(msg.sender, address(this), _amount);\r\n        availableMarginPut[msg.sender] = availableMarginPut[msg.sender] + _amount;\r\n    }\r\n\r\n    function withdrawMarginPut(uint _amount) public checkMarginPut(_amount){\r\n        availableMarginPut[msg.sender] = availableMarginPut[msg.sender] - _amount;\r\n        IERC20(Token[1]).transfer(msg.sender, _amount);\r\n    }\r\n\r\n    //set the CRG Token to be used to purchase options\r\n    function setAcceptedToken(address[] memory _token) public {\r\n        Token = _token;\r\n    }\r\n\r\n    //Check if the user has available margin to perform operations\r\n    modifier checkMarginCall(uint amount){\r\n        require(amount <= availableMarginCall[msg.sender], 'User has not enough margin to perform this operation');\r\n        _;\r\n    }\r\n\r\n    modifier checkMarginPut(uint amount){\r\n        require(amount <= availableMarginPut[msg.sender], 'User has not enough margin to perform this operation');\r\n        _;\r\n    }\r\n\r\n    modifier notExecuted(uint _id){\r\n        require(!orderBook[_id].executed, 'Option alredy executed');\r\n        _;\r\n    }\r\n\r\n    uint[] public options;//creates the options array that will be populated with the struct format in the initializePosition\r\n    \r\n    //initialize a option position\r\n    function initializePosition(\r\n        uint _amount, \r\n        uint8 _sidePosition, \r\n        uint _premium, \r\n        uint _futurePrice \r\n        ) public {\r\n        \r\n        //each interaction increments the id\r\n        id = id + 1;\r\n\r\n        //instantiate the struct to create a option\r\n        Option memory option = Option (\r\n            \r\n            {\r\n                _id : id,\r\n                amount : _amount, //up to the user when create the option\r\n                sidePosition : _sidePosition, //up to the user when create the option\r\n                initiator : msg.sender,\r\n                buyer: 0x0000000000000000000000000000000000000000,//the buyer is not set, will be set once some user buys the option. See function EnterPosition\r\n                premium : _premium, //up to the user when create the option\r\n                premiumPaid : false, //as the option is being created at this point there is no premium paid\r\n                futurePrice : _futurePrice, //up to the user when create the option\r\n                // placedDate : block.number, //the block number when the option was created\r\n                // expirationDate : block.number + (_expirationDate * expirationTime), //up to the user when create the option. Need to informed in days.\r\n                expired : false, //just creat the option\r\n                executed: false //just creat the option\r\n            }\r\n        );\r\n        if(_sidePosition == 0){\r\n            require(_amount <= availableMarginCall[msg.sender], 'Not enough margin call');\r\n            availableMarginCall[msg.sender] = availableMarginCall[msg.sender] - _amount; //updates the userMargin\r\n            allocatedMarginCall[msg.sender] = allocatedMarginCall[msg.sender] + _amount;\r\n        }else if(_sidePosition == 1){\r\n            require(_amount * _futurePrice <= availableMarginPut[msg.sender], \"Not enough margin put\");\r\n            availableMarginPut[msg.sender] = availableMarginPut[msg.sender] - _amount * _futurePrice; //updates the userMargin\r\n            allocatedMarginPut[msg.sender] = allocatedMarginPut[msg.sender] + _amount * _futurePrice;\r\n        }else {\r\n            string memory message = \"Should define 0 for call or 1 for put\";\r\n        }\r\n        options.push(option._id); //update the options array by pushin the struct above\r\n        \r\n        orderBook[id] = option; //update the orderBook with the option struct. This will be use in the next updates to have buy and sell functionality to the users       \r\n}\r\n    // internal function to send the CRG Tokens from buyer to initiator when the buyer purchases the option\r\n    // the frontend dapp needs to request to the buyer to approve this contract to spend the money on his behalf by\r\n    // callint the Approve function in the CRG Token (ERC20 standard)\r\n    function _buyingTheOption(address _buyer, address _initiator, uint _premium) internal{\r\n        IERC20(Token[1]).transferFrom(_buyer, _initiator, _premium); \r\n    }\r\n\r\n    //called by the buyer to purchase an option    \r\n    function EnterPosition (uint _id) public notExecuted(_id){\r\n        Option storage _options = orderBook[_id];//initialize the option based on its recored in the orderBook\r\n        _options.premiumPaid = true; //once Paid set the premium paid to true\r\n        _options.buyer = msg.sender;//update the orderBook setting the buyer as msg.sender\r\n        _buyingTheOption(msg.sender, _options.initiator, _options.premium);//call the internal function to send the CRG Tokens (premium payment) to the initiator\r\n    }\r\n\r\n    //if the initiator wants to shutdown the option as long as nobody purchased it\r\n    function shutDownOption(uint _id) public  notExecuted(_id) {\r\n        require(!orderBook[_id].premiumPaid, \"Option can not be removed\");\r\n        require(orderBook[_id].initiator == msg.sender, 'Caller is not the initiator');\r\n        Option storage _options = orderBook[_id];\r\n        _options.initiator = 0x0000000000000000000000000000000000000000;\r\n        _options.buyer = 0x0000000000000000000000000000000000000000;\r\n        if(orderBook[_id].sidePosition == 0){\r\n            allocatedMarginCall[msg.sender] = allocatedMarginCall[msg.sender] - _options.amount;\r\n            availableMarginCall[msg.sender] = availableMarginCall[msg.sender] + _options.amount; //updates the userMargin\r\n        }else if(orderBook[_id].sidePosition == 1){\r\n            allocatedMarginPut[msg.sender] = allocatedMarginPut[msg.sender] - ( _options.amount * _options.futurePrice);\r\n            availableMarginPut[msg.sender] = availableMarginPut[msg.sender] + ( _options.amount * _options.futurePrice); //updates the userMargin\r\n        }else {\r\n            string memory message = \"Error\";\r\n        }\r\n    }\r\n\r\n    //Set the price of the underline asset token0\r\n    function setCheckPrice(uint _inputedPrice) public onlyOwner{\r\n        checkedPrice = _inputedPrice;\r\n    }\r\n    \r\n    //Get the price of the underline asset token0\r\n    function updateCheckPrice() public view returns (uint){\r\n        return checkedPrice; \r\n    }\r\n\r\n    //at the expiration date if the buyer want to settle its option he needs to pay the remaining amount. Val\r\n    function calculatingRemaingAmount(uint _id) public view returns (uint){\r\n        Option storage _options = orderBook[_id];\r\n        _options.amount;\r\n        _options.premium;\r\n        _options.sidePosition;\r\n        if(_options.sidePosition == 0){\r\n            uint total = _options.amount * checkedPrice;\r\n            uint remainingAmount =  total - _options.premium;\r\n            return remainingAmount;\r\n        }else if(_options.sidePosition == 1){\r\n            uint remainingAmount = _options.amount * checkedPrice;\r\n            return remainingAmount;\r\n        }else{\r\n            string memory message = \"error\";\r\n        }\r\n    }\r\n\r\n    // On the settlement event, if the buyer settles the option he needs to pays the remaining amount to the initiator using CRG Token.\r\n    // At this poin the DAPP called the Approve function in the CRG Token\r\n    function _sendRemainingAmountToInitiator(uint _id) internal {\r\n        Option storage _options = orderBook[_id];\r\n        uint remainingAmount = calculatingRemaingAmount(_id);\r\n        if(_options.sidePosition == 0){\r\n            IERC20(Token[1]).transferFrom(_options.buyer, _options.initiator, remainingAmount);\r\n        }else if(_options.sidePosition == 1){\r\n            IERC20(Token[0]).transferFrom(_options.buyer, _options.initiator, remainingAmount);\r\n        }else{\r\n            string memory message = \"error\";\r\n        }       \r\n        _options.expired = true;\r\n        _options.executed = true;\r\n        // _options.remainingAmountPaid = true;\r\n    }\r\n\r\n    //if the buyer settles the option, the contract transfers the underline assets to the buyer(call) or ERC20(put)\r\n    function _releaseAssetsToBuyer(uint _id) internal {\r\n        Option memory _options = orderBook[_id];\r\n        address initiator = _options.initiator;\r\n        address buyer = _options.buyer;\r\n        uint amount = _options.amount;\r\n        if(_options.sidePosition == 0){\r\n            allocatedMarginCall[initiator] = allocatedMarginCall[initiator] - _options.amount;\r\n            IERC20(Token[0]).transfer(buyer, amount);\r\n        }else if(_options.sidePosition == 1){\r\n            uint _value = _options.amount * _options.futurePrice;\r\n            allocatedMarginPut[initiator] = allocatedMarginPut[initiator] - _value;\r\n            IERC20(Token[1]).transfer(_options.buyer, _value);\r\n            \r\n        }else{\r\n            string memory message = 'error';\r\n        }\r\n    }\r\n\r\n    // in case a buyer paid the premium, however did not paid the remaining amount and the option is expired\r\n    // the initiator is able to release allocated margin\r\n    function releaseAllocatedMarginForAPremiumPaidExpiredOption(uint _id) public notExecuted(_id){\r\n        require(orderBook[_id].buyer != 0x0000000000000000000000000000000000000000 ,'Option cannot be removed');\r\n        require(orderBook[_id].initiator == msg.sender, 'Caller is not the initiator');\r\n        Option storage _options = orderBook[_id];\r\n        orderBook[_id].executed = true;\r\n        \r\n        if(_options.sidePosition == 0){\r\n            allocatedMarginCall[msg.sender] = allocatedMarginCall[msg.sender] + _options.amount;\r\n        }else if(_options.sidePosition == 1){\r\n            uint _value = _options.amount * _options.futurePrice;\r\n            allocatedMarginPut[msg.sender] = allocatedMarginPut[msg.sender] + _value;\r\n        }\r\n\r\n        _options.initiator = 0x0000000000000000000000000000000000000000;\r\n        _options.buyer = 0x0000000000000000000000000000000000000000;\r\n    }\r\n    \r\n    function Settlement (uint _id) public {\r\n        Option storage _options = orderBook[_id];\r\n        \r\n        uint _spotPrice = uint(updateCheckPrice());\r\n        \r\n        uint _value = _options.amount * _options.futurePrice;\r\n        if(_options.sidePosition == 0) {\r\n            if(_spotPrice >= _options.futurePrice){\r\n                _options.expired = true;\r\n                _options.executed = true;\r\n                allocatedMarginCall[msg.sender] = allocatedMarginCall[msg.sender] - _options.amount;\r\n                availableMarginCall[msg.sender] = availableMarginCall[msg.sender] + _options.amount;                \r\n                }else{\r\n                _options.expired = true;\r\n                _options.executed = true;\r\n                _sendRemainingAmountToInitiator(_id);\r\n                _releaseAssetsToBuyer(id);\r\n            }\r\n        }else if(_options.sidePosition == 1){\r\n            if(_spotPrice >= _options.futurePrice){\r\n                _options.expired = true;\r\n                _options.executed = true;\r\n                allocatedMarginPut[msg.sender] = allocatedMarginPut[msg.sender] - _value;\r\n                availableMarginPut[msg.sender] = availableMarginPut[msg.sender] + _value;\r\n            }else{\r\n                _options.expired = true;\r\n                _options.executed = true;\r\n                _sendRemainingAmountToInitiator(_id);\r\n                _releaseAssetsToBuyer(id);\r\n            }\r\n        }else{\r\n            string memory message = 'error';\r\n        }\r\n    }\r\n}",
  "sourcePath": "C:\\Users\\rafae\\Documents\\4. Estudos\\Projetos\\DeveloperBootCampConsensys\\blockchain-developer-bootcamp-final-project\\contracts\\OptionDex.sol",
  "compiler": {
    "name": "solc",
    "version": "0.8.11+commit.d7f03943.Emscripten.clang"
  },
  "schemaVersion": "3.4.3",
  "updatedAt": "2022-01-14T02:58:56.696Z",
  "devdoc": {
    "kind": "dev",
    "methods": {
      "owner()": {
        "details": "Returns the address of the current owner."
      },
      "renounceOwnership()": {
        "details": "Leaves the contract without owner. It will not be possible to call `onlyOwner` functions anymore. Can only be called by the current owner. NOTE: Renouncing ownership will leave the contract without an owner, thereby removing any functionality that is only available to the owner."
      },
      "transferOwnership(address)": {
        "details": "Transfers ownership of the contract to a new account (`newOwner`). Can only be called by the current owner."
      }
    },
    "version": 1
  },
  "userdoc": {
    "kind": "user",
    "methods": {},
    "version": 1
  }
}