{
  "contractName": "OptionDexv2",
  "abi": [
    {
      "inputs": [
        {
          "internalType": "address",
          "name": "",
          "type": "address"
        }
      ],
      "name": "allocatedMarginCall",
      "outputs": [
        {
          "internalType": "uint256",
          "name": "",
          "type": "uint256"
        }
      ],
      "stateMutability": "view",
      "type": "function"
    },
    {
      "inputs": [
        {
          "internalType": "address",
          "name": "",
          "type": "address"
        }
      ],
      "name": "allocatedMarginPut",
      "outputs": [
        {
          "internalType": "uint256",
          "name": "",
          "type": "uint256"
        }
      ],
      "stateMutability": "view",
      "type": "function"
    },
    {
      "inputs": [
        {
          "internalType": "address",
          "name": "",
          "type": "address"
        }
      ],
      "name": "availableMarginCall",
      "outputs": [
        {
          "internalType": "uint256",
          "name": "",
          "type": "uint256"
        }
      ],
      "stateMutability": "view",
      "type": "function"
    },
    {
      "inputs": [
        {
          "internalType": "address",
          "name": "",
          "type": "address"
        }
      ],
      "name": "availableMarginPut",
      "outputs": [
        {
          "internalType": "uint256",
          "name": "",
          "type": "uint256"
        }
      ],
      "stateMutability": "view",
      "type": "function"
    },
    {
      "inputs": [
        {
          "internalType": "uint256",
          "name": "",
          "type": "uint256"
        }
      ],
      "name": "options",
      "outputs": [
        {
          "internalType": "uint256",
          "name": "",
          "type": "uint256"
        }
      ],
      "stateMutability": "view",
      "type": "function"
    },
    {
      "inputs": [
        {
          "internalType": "uint256",
          "name": "",
          "type": "uint256"
        }
      ],
      "name": "orderBook",
      "outputs": [
        {
          "internalType": "uint256",
          "name": "_id",
          "type": "uint256"
        },
        {
          "internalType": "uint8",
          "name": "futurePrice",
          "type": "uint8"
        },
        {
          "internalType": "uint8",
          "name": "premium",
          "type": "uint8"
        },
        {
          "internalType": "uint8",
          "name": "amount",
          "type": "uint8"
        },
        {
          "internalType": "uint8",
          "name": "sidePosition",
          "type": "uint8"
        },
        {
          "internalType": "uint256",
          "name": "placedDate",
          "type": "uint256"
        },
        {
          "internalType": "uint256",
          "name": "expirationDate",
          "type": "uint256"
        },
        {
          "internalType": "bool",
          "name": "premiumPaid",
          "type": "bool"
        },
        {
          "internalType": "bool",
          "name": "expired",
          "type": "bool"
        },
        {
          "internalType": "bool",
          "name": "executed",
          "type": "bool"
        },
        {
          "internalType": "address",
          "name": "initiator",
          "type": "address"
        },
        {
          "internalType": "address",
          "name": "buyer",
          "type": "address"
        }
      ],
      "stateMutability": "view",
      "type": "function"
    },
    {
      "inputs": [
        {
          "internalType": "uint256",
          "name": "_expirationTime",
          "type": "uint256"
        }
      ],
      "name": "SetExpirationTime",
      "outputs": [],
      "stateMutability": "nonpayable",
      "type": "function"
    },
    {
      "inputs": [],
      "name": "getExpirationTime",
      "outputs": [
        {
          "internalType": "uint256",
          "name": "",
          "type": "uint256"
        }
      ],
      "stateMutability": "view",
      "type": "function"
    },
    {
      "inputs": [
        {
          "internalType": "uint256",
          "name": "_amount",
          "type": "uint256"
        }
      ],
      "name": "depositMarginCall",
      "outputs": [],
      "stateMutability": "nonpayable",
      "type": "function"
    },
    {
      "inputs": [
        {
          "internalType": "uint256",
          "name": "_amount",
          "type": "uint256"
        }
      ],
      "name": "withdrawMarginCall",
      "outputs": [],
      "stateMutability": "nonpayable",
      "type": "function"
    },
    {
      "inputs": [
        {
          "internalType": "uint256",
          "name": "_amount",
          "type": "uint256"
        }
      ],
      "name": "depositMarginPut",
      "outputs": [],
      "stateMutability": "nonpayable",
      "type": "function"
    },
    {
      "inputs": [
        {
          "internalType": "uint256",
          "name": "_amount",
          "type": "uint256"
        }
      ],
      "name": "withdrawMarginPut",
      "outputs": [],
      "stateMutability": "nonpayable",
      "type": "function"
    },
    {
      "inputs": [
        {
          "internalType": "address[]",
          "name": "_token",
          "type": "address[]"
        }
      ],
      "name": "setAcceptedToken",
      "outputs": [],
      "stateMutability": "nonpayable",
      "type": "function"
    },
    {
      "inputs": [
        {
          "internalType": "uint8",
          "name": "_amount",
          "type": "uint8"
        },
        {
          "internalType": "uint8",
          "name": "_sidePosition",
          "type": "uint8"
        },
        {
          "internalType": "uint8",
          "name": "_premium",
          "type": "uint8"
        },
        {
          "internalType": "uint8",
          "name": "_futurePrice",
          "type": "uint8"
        },
        {
          "internalType": "uint256",
          "name": "_expirationDate",
          "type": "uint256"
        }
      ],
      "name": "initializePosition",
      "outputs": [],
      "stateMutability": "nonpayable",
      "type": "function"
    },
    {
      "inputs": [
        {
          "internalType": "uint256",
          "name": "_id",
          "type": "uint256"
        }
      ],
      "name": "EnterPosition",
      "outputs": [],
      "stateMutability": "nonpayable",
      "type": "function"
    },
    {
      "inputs": [
        {
          "internalType": "uint256",
          "name": "_id",
          "type": "uint256"
        }
      ],
      "name": "shutDownOption",
      "outputs": [],
      "stateMutability": "nonpayable",
      "type": "function"
    },
    {
      "inputs": [
        {
          "internalType": "uint256",
          "name": "_inputedPrice",
          "type": "uint256"
        }
      ],
      "name": "setCheckPrice",
      "outputs": [],
      "stateMutability": "nonpayable",
      "type": "function"
    },
    {
      "inputs": [],
      "name": "updateCheckPrice",
      "outputs": [
        {
          "internalType": "uint256",
          "name": "",
          "type": "uint256"
        }
      ],
      "stateMutability": "view",
      "type": "function"
    },
    {
      "inputs": [
        {
          "internalType": "uint256",
          "name": "_id",
          "type": "uint256"
        }
      ],
      "name": "calculatingRemaingAmount",
      "outputs": [
        {
          "internalType": "uint256",
          "name": "",
          "type": "uint256"
        }
      ],
      "stateMutability": "view",
      "type": "function"
    },
    {
      "inputs": [
        {
          "internalType": "uint256",
          "name": "_id",
          "type": "uint256"
        }
      ],
      "name": "releaseAllocatedMarginForAPremiumPaidExpiredOption",
      "outputs": [],
      "stateMutability": "nonpayable",
      "type": "function"
    },
    {
      "inputs": [
        {
          "internalType": "uint256",
          "name": "_id",
          "type": "uint256"
        }
      ],
      "name": "Settlement",
      "outputs": [],
      "stateMutability": "nonpayable",
      "type": "function"
    }
  ],
  "bytecode": "0x608060405261168060035534801561001657600080fd5b50613dc3806100266000396000f3fe608060405234801561001057600080fd5b50600436106101375760003560e01c8063a20b6e34116100b8578063e23a845a1161007c578063e23a845a14610351578063e41a9de21461036f578063e7d83f111461038b578063edae2a83146103a7578063fa194f79146103d7578063fdfc8b701461040757610137565b8063a20b6e3414610292578063ab584a79146102cd578063ad7deb76146102fd578063b277a6e614610319578063bd9d8e5b1461033557610137565b8063469272a2116100ff578063469272a2146101dc5780634efc9a0d1461020c57806365d4dbe21461023c57806379750b9a1461025a5780637a70845d1461027657610137565b806314f482a21461013c57806326bc91431461015857806334efd53a146101745780633dce082b14610190578063409e2205146101ac575b600080fd5b610156600480360381019061015191906132fe565b610423565b005b610172600480360381019061016d91906132fe565b610574565b005b61018e600480360381019061018991906132fe565b610c7e565b005b6101aa60048036038101906101a59190613364565b610e50565b005b6101c660048036038101906101c191906132fe565b61149e565b6040516101d391906133ee565b60405180910390f35b6101f660048036038101906101f19190613467565b6114c2565b60405161020391906133ee565b60405180910390f35b61022660048036038101906102219190613467565b6114da565b60405161023391906133ee565b60405180910390f35b6102446114f2565b60405161025191906133ee565b60405180910390f35b610274600480360381019061026f91906132fe565b6114fc565b005b610290600480360381019061028b91906132fe565b611506565b005b6102ac60048036038101906102a791906132fe565b611923565b6040516102c49c9b9a999897969594939291906134cd565b60405180910390f35b6102e760048036038101906102e29190613467565b611a1e565b6040516102f491906133ee565b60405180910390f35b610317600480360381019061031291906132fe565b611a36565b005b610333600480360381019061032e91906132fe565b611a40565b005b61034f600480360381019061034a91906132fe565b611d15565b005b610359611e65565b60405161036691906133ee565b60405180910390f35b610389600480360381019061038491906132fe565b611e6f565b005b6103a560048036038101906103a091906136e0565b612042565b005b6103c160048036038101906103bc91906132fe565b61205c565b6040516103ce91906133ee565b60405180910390f35b6103f160048036038101906103ec9190613467565b6122e1565b6040516103fe91906133ee565b60405180910390f35b610421600480360381019061041c91906132fe565b6122f9565b005b600160008154811061043857610437613729565b5b9060005260206000200160009054906101000a900473ffffffffffffffffffffffffffffffffffffffff1673ffffffffffffffffffffffffffffffffffffffff166323b872dd3330846040518463ffffffff1660e01b815260040161049f93929190613758565b6020604051808303816000875af11580156104be573d6000803e3d6000fd5b505050506040513d601f19601f820116820180604052508101906104e291906137bb565b5080600560003373ffffffffffffffffffffffffffffffffffffffff1673ffffffffffffffffffffffffffffffffffffffff1681526020019081526020016000205461052e9190613817565b600560003373ffffffffffffffffffffffffffffffffffffffff1673ffffffffffffffffffffffffffffffffffffffff1681526020019081526020016000208190555050565b8043600460008381526020019081526020016000206003015411156105ce576040517f08c379a00000000000000000000000000000000000000000000000000000000081526004016105c5906138ca565b60405180910390fd5b816004600082815260200190815260200160002060040160029054906101000a900460ff1615610633576040517f08c379a000000000000000000000000000000000000000000000000000000000815260040161062a90613936565b60405180910390fd5b6004600084815260200190815260200160002060040160009054906101000a900460ff1615610697576040517f08c379a000000000000000000000000000000000000000000000000000000000815260040161068e906139a2565b60405180910390fd5b3373ffffffffffffffffffffffffffffffffffffffff166004600085815260200190815260200160002060040160039054906101000a900473ffffffffffffffffffffffffffffffffffffffff1673ffffffffffffffffffffffffffffffffffffffff161461073b576040517f08c379a000000000000000000000000000000000000000000000000000000000815260040161073290613a0e565b60405180910390fd5b60006004600085815260200190815260200160002060405180610180016040529081600082015481526020016001820160009054906101000a900460ff1660ff1660ff1681526020016001820160019054906101000a900460ff1660ff1660ff1681526020016001820160029054906101000a900460ff1660ff1660ff1681526020016001820160039054906101000a900460ff1660ff1660ff16815260200160028201548152602001600382015481526020016004820160009054906101000a900460ff161515151581526020016004820160019054906101000a900460ff161515151581526020016004820160029054906101000a900460ff161515151581526020016004820160039054906101000a900473ffffffffffffffffffffffffffffffffffffffff1673ffffffffffffffffffffffffffffffffffffffff1673ffffffffffffffffffffffffffffffffffffffff1681526020016005820160009054906101000a900473ffffffffffffffffffffffffffffffffffffffff1673ffffffffffffffffffffffffffffffffffffffff1673ffffffffffffffffffffffffffffffffffffffff16815250509050600081610140019073ffffffffffffffffffffffffffffffffffffffff16908173ffffffffffffffffffffffffffffffffffffffff1681525050600081610160019073ffffffffffffffffffffffffffffffffffffffff16908173ffffffffffffffffffffffffffffffffffffffff168152505060006004600086815260200190815260200160002060010160039054906101000a900460ff1660ff161415610abf57806060015160ff16600660003373ffffffffffffffffffffffffffffffffffffffff1673ffffffffffffffffffffffffffffffffffffffff168152602001908152602001600020546109e29190613a2e565b600660003373ffffffffffffffffffffffffffffffffffffffff1673ffffffffffffffffffffffffffffffffffffffff16815260200190815260200160002081905550806060015160ff16600560003373ffffffffffffffffffffffffffffffffffffffff1673ffffffffffffffffffffffffffffffffffffffff16815260200190815260200160002054610a779190613817565b600560003373ffffffffffffffffffffffffffffffffffffffff1673ffffffffffffffffffffffffffffffffffffffff16815260200190815260200160002081905550610c78565b60016004600086815260200190815260200160002060010160039054906101000a900460ff1660ff161415610c3b5780602001518160600151610b029190613a62565b60ff16600860003373ffffffffffffffffffffffffffffffffffffffff1673ffffffffffffffffffffffffffffffffffffffff16815260200190815260200160002054610b4f9190613a2e565b600860003373ffffffffffffffffffffffffffffffffffffffff1673ffffffffffffffffffffffffffffffffffffffff1681526020019081526020016000208190555080602001518160600151610ba69190613a62565b60ff16600760003373ffffffffffffffffffffffffffffffffffffffff1673ffffffffffffffffffffffffffffffffffffffff16815260200190815260200160002054610bf39190613817565b600760003373ffffffffffffffffffffffffffffffffffffffff1673ffffffffffffffffffffffffffffffffffffffff16815260200190815260200160002081905550610c77565b60006040518060400160405280600581526020017f4572726f720000000000000000000000000000000000000000000000000000008152509050505b5b50505050565b80600760003373ffffffffffffffffffffffffffffffffffffffff1673ffffffffffffffffffffffffffffffffffffffff16815260200190815260200160002054811115610d01576040517f08c379a0000000000000000000000000000000000000000000000000000000008152600401610cf890613b0f565b60405180910390fd5b81600760003373ffffffffffffffffffffffffffffffffffffffff1673ffffffffffffffffffffffffffffffffffffffff16815260200190815260200160002054610d4c9190613a2e565b600760003373ffffffffffffffffffffffffffffffffffffffff1673ffffffffffffffffffffffffffffffffffffffff1681526020019081526020016000208190555060018081548110610da357610da2613729565b5b9060005260206000200160009054906101000a900473ffffffffffffffffffffffffffffffffffffffff1673ffffffffffffffffffffffffffffffffffffffff1663a9059cbb33846040518363ffffffff1660e01b8152600401610e08929190613b2f565b6020604051808303816000875af1158015610e27573d6000803e3d6000fd5b505050506040513d601f19601f82011682018060405250810190610e4b91906137bb565b505050565b6001600054610e5f9190613817565b600081905550600060405180610180016040528060005481526020018460ff1681526020018560ff1681526020018760ff1681526020018660ff16815260200143815260200160035484610eb39190613b58565b81526020016000151581526020016000151581526020016000151581526020013373ffffffffffffffffffffffffffffffffffffffff168152602001600073ffffffffffffffffffffffffffffffffffffffff16815250905060008560ff1614156110c457600560003373ffffffffffffffffffffffffffffffffffffffff1673ffffffffffffffffffffffffffffffffffffffff168152602001908152602001600020548660ff161115610f9d576040517f08c379a0000000000000000000000000000000000000000000000000000000008152600401610f9490613bfe565b60405180910390fd5b8560ff16600560003373ffffffffffffffffffffffffffffffffffffffff1673ffffffffffffffffffffffffffffffffffffffff16815260200190815260200160002054610feb9190613a2e565b600560003373ffffffffffffffffffffffffffffffffffffffff1673ffffffffffffffffffffffffffffffffffffffff168152602001908152602001600020819055508560ff16600660003373ffffffffffffffffffffffffffffffffffffffff1673ffffffffffffffffffffffffffffffffffffffff1681526020019081526020016000205461107c9190613817565b600660003373ffffffffffffffffffffffffffffffffffffffff1673ffffffffffffffffffffffffffffffffffffffff168152602001908152602001600020819055506112bd565b60018560ff16141561129d57600760003373ffffffffffffffffffffffffffffffffffffffff1673ffffffffffffffffffffffffffffffffffffffff16815260200190815260200160002054838761111c9190613a62565b60ff161115611160576040517f08c379a000000000000000000000000000000000000000000000000000000000815260040161115790613c6a565b60405180910390fd5b828661116c9190613a62565b60ff16600760003373ffffffffffffffffffffffffffffffffffffffff1673ffffffffffffffffffffffffffffffffffffffff168152602001908152602001600020546111b99190613a2e565b600760003373ffffffffffffffffffffffffffffffffffffffff1673ffffffffffffffffffffffffffffffffffffffff1681526020019081526020016000208190555082866112089190613a62565b60ff16600860003373ffffffffffffffffffffffffffffffffffffffff1673ffffffffffffffffffffffffffffffffffffffff168152602001908152602001600020546112559190613817565b600860003373ffffffffffffffffffffffffffffffffffffffff1673ffffffffffffffffffffffffffffffffffffffff168152602001908152602001600020819055506112bc565b6000604051806060016040528060258152602001613d69602591399050505b5b6009816000015190806001815401808255809150506001900390600052602060002001600090919091909150558060046000805481526020019081526020016000206000820151816000015560208201518160010160006101000a81548160ff021916908360ff16021790555060408201518160010160016101000a81548160ff021916908360ff16021790555060608201518160010160026101000a81548160ff021916908360ff16021790555060808201518160010160036101000a81548160ff021916908360ff16021790555060a0820151816002015560c0820151816003015560e08201518160040160006101000a81548160ff0219169083151502179055506101008201518160040160016101000a81548160ff0219169083151502179055506101208201518160040160026101000a81548160ff0219169083151502179055506101408201518160040160036101000a81548173ffffffffffffffffffffffffffffffffffffffff021916908373ffffffffffffffffffffffffffffffffffffffff1602179055506101608201518160050160006101000a81548173ffffffffffffffffffffffffffffffffffffffff021916908373ffffffffffffffffffffffffffffffffffffffff160217905550905050505050505050565b600981815481106114ae57600080fd5b906000526020600020016000915090505481565b60086020528060005260406000206000915090505481565b60066020528060005260406000206000915090505481565b6000600254905090565b8060038190555050565b600060046000838152602001908152602001600020905060006115276114f2565b905060008260010160009054906101000a900460ff168360010160029054906101000a900460ff166115599190613a62565b60ff16905060008360010160039054906101000a900460ff1660ff161415611733578260010160009054906101000a900460ff1660ff1682106116fc5760018360040160016101000a81548160ff0219169083151502179055508260010160029054906101000a900460ff1660ff16600660003373ffffffffffffffffffffffffffffffffffffffff1673ffffffffffffffffffffffffffffffffffffffff168152602001908152602001600020546116129190613a2e565b600660003373ffffffffffffffffffffffffffffffffffffffff1673ffffffffffffffffffffffffffffffffffffffff168152602001908152602001600020819055508260010160029054906101000a900460ff1660ff16600560003373ffffffffffffffffffffffffffffffffffffffff1673ffffffffffffffffffffffffffffffffffffffff168152602001908152602001600020546116b49190613817565b600560003373ffffffffffffffffffffffffffffffffffffffff1673ffffffffffffffffffffffffffffffffffffffff1681526020019081526020016000208190555061172e565b60018360040160016101000a81548160ff02191690831515021790555061172284612868565b61172d600054612c4a565b5b61191d565b60018360010160039054906101000a900460ff1660ff1614156118e0578260010160009054906101000a900460ff1660ff1682106118a95760018360040160016101000a81548160ff02191690831515021790555080600860003373ffffffffffffffffffffffffffffffffffffffff1673ffffffffffffffffffffffffffffffffffffffff168152602001908152602001600020546117d39190613a2e565b600860003373ffffffffffffffffffffffffffffffffffffffff1673ffffffffffffffffffffffffffffffffffffffff1681526020019081526020016000208190555080600760003373ffffffffffffffffffffffffffffffffffffffff1673ffffffffffffffffffffffffffffffffffffffff168152602001908152602001600020546118619190613817565b600760003373ffffffffffffffffffffffffffffffffffffffff1673ffffffffffffffffffffffffffffffffffffffff168152602001908152602001600020819055506118db565b60018360040160016101000a81548160ff0219169083151502179055506118cf84612868565b6118da600054612c4a565b5b61191c565b60006040518060400160405280600581526020017f6572726f720000000000000000000000000000000000000000000000000000008152509050505b5b50505050565b60046020528060005260406000206000915090508060000154908060010160009054906101000a900460ff16908060010160019054906101000a900460ff16908060010160029054906101000a900460ff16908060010160039054906101000a900460ff16908060020154908060030154908060040160009054906101000a900460ff16908060040160019054906101000a900460ff16908060040160029054906101000a900460ff16908060040160039054906101000a900473ffffffffffffffffffffffffffffffffffffffff16908060050160009054906101000a900473ffffffffffffffffffffffffffffffffffffffff1690508c565b60056020528060005260406000206000915090505481565b8060028190555050565b804360046000838152602001908152602001600020600301541115611a9a576040517f08c379a0000000000000000000000000000000000000000000000000000000008152600401611a91906138ca565b60405180910390fd5b816004600082815260200190815260200160002060040160029054906101000a900460ff1615611aff576040517f08c379a0000000000000000000000000000000000000000000000000000000008152600401611af690613936565b60405180910390fd5b60006004600085815260200190815260200160002060405180610180016040529081600082015481526020016001820160009054906101000a900460ff1660ff1660ff1681526020016001820160019054906101000a900460ff1660ff1660ff1681526020016001820160029054906101000a900460ff1660ff1660ff1681526020016001820160039054906101000a900460ff1660ff1660ff16815260200160028201548152602001600382015481526020016004820160009054906101000a900460ff161515151581526020016004820160019054906101000a900460ff161515151581526020016004820160029054906101000a900460ff161515151581526020016004820160039054906101000a900473ffffffffffffffffffffffffffffffffffffffff1673ffffffffffffffffffffffffffffffffffffffff1673ffffffffffffffffffffffffffffffffffffffff1681526020016005820160009054906101000a900473ffffffffffffffffffffffffffffffffffffffff1673ffffffffffffffffffffffffffffffffffffffff1673ffffffffffffffffffffffffffffffffffffffff1681525050905060018160e00190151590811515815250503381610160019073ffffffffffffffffffffffffffffffffffffffff16908173ffffffffffffffffffffffffffffffffffffffff1681525050611d0f338261014001518360400151613149565b50505050565b60018081548110611d2957611d28613729565b5b9060005260206000200160009054906101000a900473ffffffffffffffffffffffffffffffffffffffff1673ffffffffffffffffffffffffffffffffffffffff166323b872dd3330846040518463ffffffff1660e01b8152600401611d9093929190613758565b6020604051808303816000875af1158015611daf573d6000803e3d6000fd5b505050506040513d601f19601f82011682018060405250810190611dd391906137bb565b5080600760003373ffffffffffffffffffffffffffffffffffffffff1673ffffffffffffffffffffffffffffffffffffffff16815260200190815260200160002054611e1f9190613817565b600760003373ffffffffffffffffffffffffffffffffffffffff1673ffffffffffffffffffffffffffffffffffffffff1681526020019081526020016000208190555050565b6000600354905090565b80600560003373ffffffffffffffffffffffffffffffffffffffff1673ffffffffffffffffffffffffffffffffffffffff16815260200190815260200160002054811115611ef2576040517f08c379a0000000000000000000000000000000000000000000000000000000008152600401611ee990613b0f565b60405180910390fd5b81600560003373ffffffffffffffffffffffffffffffffffffffff1673ffffffffffffffffffffffffffffffffffffffff16815260200190815260200160002054611f3d9190613a2e565b600560003373ffffffffffffffffffffffffffffffffffffffff1673ffffffffffffffffffffffffffffffffffffffff168152602001908152602001600020819055506001600081548110611f9557611f94613729565b5b9060005260206000200160009054906101000a900473ffffffffffffffffffffffffffffffffffffffff1673ffffffffffffffffffffffffffffffffffffffff1663a9059cbb33846040518363ffffffff1660e01b8152600401611ffa929190613b2f565b6020604051808303816000875af1158015612019573d6000803e3d6000fd5b505050506040513d601f19601f8201168201806040525081019061203d91906137bb565b505050565b806001908051906020019061205892919061320d565b5050565b6000806004600084815260200190815260200160002060405180610180016040529081600082015481526020016001820160009054906101000a900460ff1660ff1660ff1681526020016001820160019054906101000a900460ff1660ff1660ff1681526020016001820160029054906101000a900460ff1660ff1660ff1681526020016001820160039054906101000a900460ff1660ff1660ff16815260200160028201548152602001600382015481526020016004820160009054906101000a900460ff161515151581526020016004820160019054906101000a900460ff161515151581526020016004820160029054906101000a900460ff161515151581526020016004820160039054906101000a900473ffffffffffffffffffffffffffffffffffffffff1673ffffffffffffffffffffffffffffffffffffffff1673ffffffffffffffffffffffffffffffffffffffff1681526020016005820160009054906101000a900473ffffffffffffffffffffffffffffffffffffffff1673ffffffffffffffffffffffffffffffffffffffff1673ffffffffffffffffffffffffffffffffffffffff168152505090508060600151508060400151508060800151506000816080015160ff16141561226c576000600254826060015160ff166122489190613b58565b90506000826040015160ff168261225f9190613a2e565b90508093505050506122dc565b6001816080015160ff16141561229f576000600254826060015160ff166122939190613b58565b905080925050506122dc565b60006040518060400160405280600581526020017f6572726f72000000000000000000000000000000000000000000000000000000815250905050505b919050565b60076020528060005260406000206000915090505481565b806004600082815260200190815260200160002060040160029054906101000a900460ff161561235e576040517f08c379a000000000000000000000000000000000000000000000000000000000815260040161235590613936565b60405180910390fd5b600073ffffffffffffffffffffffffffffffffffffffff166004600084815260200190815260200160002060050160009054906101000a900473ffffffffffffffffffffffffffffffffffffffff1673ffffffffffffffffffffffffffffffffffffffff161415612404576040517f08c379a00000000000000000000000000000000000000000000000000000000081526004016123fb90613cd6565b60405180910390fd5b3373ffffffffffffffffffffffffffffffffffffffff166004600084815260200190815260200160002060040160039054906101000a900473ffffffffffffffffffffffffffffffffffffffff1673ffffffffffffffffffffffffffffffffffffffff16146124a8576040517f08c379a000000000000000000000000000000000000000000000000000000000815260040161249f90613a0e565b60405180910390fd5b60006004600084815260200190815260200160002060405180610180016040529081600082015481526020016001820160009054906101000a900460ff1660ff1660ff1681526020016001820160019054906101000a900460ff1660ff1660ff1681526020016001820160029054906101000a900460ff1660ff1660ff1681526020016001820160039054906101000a900460ff1660ff1660ff16815260200160028201548152602001600382015481526020016004820160009054906101000a900460ff161515151581526020016004820160019054906101000a900460ff161515151581526020016004820160029054906101000a900460ff161515151581526020016004820160039054906101000a900473ffffffffffffffffffffffffffffffffffffffff1673ffffffffffffffffffffffffffffffffffffffff1673ffffffffffffffffffffffffffffffffffffffff1681526020016005820160009054906101000a900473ffffffffffffffffffffffffffffffffffffffff1673ffffffffffffffffffffffffffffffffffffffff1673ffffffffffffffffffffffffffffffffffffffff1681525050905060016004600085815260200190815260200160002060040160026101000a81548160ff0219169083151502179055506000816080015160ff16141561273357806060015160ff16600660003373ffffffffffffffffffffffffffffffffffffffff1673ffffffffffffffffffffffffffffffffffffffff168152602001908152602001600020546126eb9190613817565b600660003373ffffffffffffffffffffffffffffffffffffffff1673ffffffffffffffffffffffffffffffffffffffff168152602001908152602001600020819055506127ef565b6001816080015160ff1614156127ee576000816020015182606001516127599190613a62565b60ff16905080600860003373ffffffffffffffffffffffffffffffffffffffff1673ffffffffffffffffffffffffffffffffffffffff168152602001908152602001600020546127a99190613817565b600860003373ffffffffffffffffffffffffffffffffffffffff1673ffffffffffffffffffffffffffffffffffffffff16815260200190815260200160002081905550505b5b600081610140019073ffffffffffffffffffffffffffffffffffffffff16908173ffffffffffffffffffffffffffffffffffffffff1681525050600081610160019073ffffffffffffffffffffffffffffffffffffffff16908173ffffffffffffffffffffffffffffffffffffffff1681525050505050565b60006004600083815260200190815260200160002060405180610180016040529081600082015481526020016001820160009054906101000a900460ff1660ff1660ff1681526020016001820160019054906101000a900460ff1660ff1660ff1681526020016001820160029054906101000a900460ff1660ff1660ff1681526020016001820160039054906101000a900460ff1660ff1660ff16815260200160028201548152602001600382015481526020016004820160009054906101000a900460ff161515151581526020016004820160019054906101000a900460ff161515151581526020016004820160029054906101000a900460ff161515151581526020016004820160039054906101000a900473ffffffffffffffffffffffffffffffffffffffff1673ffffffffffffffffffffffffffffffffffffffff1673ffffffffffffffffffffffffffffffffffffffff1681526020016005820160009054906101000a900473ffffffffffffffffffffffffffffffffffffffff1673ffffffffffffffffffffffffffffffffffffffff1673ffffffffffffffffffffffffffffffffffffffff168152505090506000612a258361205c565b90506000826080015160ff161415612b055760018081548110612a4b57612a4a613729565b5b9060005260206000200160009054906101000a900473ffffffffffffffffffffffffffffffffffffffff1673ffffffffffffffffffffffffffffffffffffffff166323b872dd836101600151846101400151846040518463ffffffff1660e01b8152600401612abc93929190613758565b6020604051808303816000875af1158015612adb573d6000803e3d6000fd5b505050506040513d601f19601f82011682018060405250810190612aff91906137bb565b50612c21565b6001826080015160ff161415612be4576001600081548110612b2a57612b29613729565b5b9060005260206000200160009054906101000a900473ffffffffffffffffffffffffffffffffffffffff1673ffffffffffffffffffffffffffffffffffffffff166323b872dd836101600151846101400151846040518463ffffffff1660e01b8152600401612b9b93929190613758565b6020604051808303816000875af1158015612bba573d6000803e3d6000fd5b505050506040513d601f19601f82011682018060405250810190612bde91906137bb565b50612c20565b60006040518060400160405280600581526020017f6572726f720000000000000000000000000000000000000000000000000000008152509050505b5b600182610100019015159081151581525050600182610120019015159081151581525050505050565b60006004600083815260200190815260200160002060405180610180016040529081600082015481526020016001820160009054906101000a900460ff1660ff1660ff1681526020016001820160019054906101000a900460ff1660ff1660ff1681526020016001820160029054906101000a900460ff1660ff1660ff1681526020016001820160039054906101000a900460ff1660ff1660ff16815260200160028201548152602001600382015481526020016004820160009054906101000a900460ff161515151581526020016004820160019054906101000a900460ff161515151581526020016004820160029054906101000a900460ff161515151581526020016004820160039054906101000a900473ffffffffffffffffffffffffffffffffffffffff1673ffffffffffffffffffffffffffffffffffffffff1673ffffffffffffffffffffffffffffffffffffffff1681526020016005820160009054906101000a900473ffffffffffffffffffffffffffffffffffffffff1673ffffffffffffffffffffffffffffffffffffffff1673ffffffffffffffffffffffffffffffffffffffff1681525050905060008161014001519050600082610160015190506000836060015160ff1690506000846080015160ff161415612f8457836060015160ff16600660008573ffffffffffffffffffffffffffffffffffffffff1673ffffffffffffffffffffffffffffffffffffffff16815260200190815260200160002054612e7e9190613a2e565b600660008573ffffffffffffffffffffffffffffffffffffffff1673ffffffffffffffffffffffffffffffffffffffff168152602001908152602001600020819055506001600081548110612ed657612ed5613729565b5b9060005260206000200160009054906101000a900473ffffffffffffffffffffffffffffffffffffffff1673ffffffffffffffffffffffffffffffffffffffff1663a9059cbb83836040518363ffffffff1660e01b8152600401612f3b929190613b2f565b6020604051808303816000875af1158015612f5a573d6000803e3d6000fd5b505050506040513d601f19601f82011682018060405250810190612f7e91906137bb565b50613142565b6001846080015160ff16141561310557600084602001518560600151612faa9190613a62565b60ff16905080600860008673ffffffffffffffffffffffffffffffffffffffff1673ffffffffffffffffffffffffffffffffffffffff16815260200190815260200160002054612ffa9190613a2e565b600860008673ffffffffffffffffffffffffffffffffffffffff1673ffffffffffffffffffffffffffffffffffffffff168152602001908152602001600020819055506001808154811061305157613050613729565b5b9060005260206000200160009054906101000a900473ffffffffffffffffffffffffffffffffffffffff1673ffffffffffffffffffffffffffffffffffffffff1663a9059cbb866101600151836040518363ffffffff1660e01b81526004016130bb929190613b2f565b6020604051808303816000875af11580156130da573d6000803e3d6000fd5b505050506040513d601f19601f820116820180604052508101906130fe91906137bb565b5050613141565b60006040518060400160405280600581526020017f6572726f720000000000000000000000000000000000000000000000000000008152509050505b5b5050505050565b6001808154811061315d5761315c613729565b5b9060005260206000200160009054906101000a900473ffffffffffffffffffffffffffffffffffffffff1673ffffffffffffffffffffffffffffffffffffffff166323b872dd8484846040518463ffffffff1660e01b81526004016131c493929190613d31565b6020604051808303816000875af11580156131e3573d6000803e3d6000fd5b505050506040513d601f19601f8201168201806040525081019061320791906137bb565b50505050565b828054828255906000526020600020908101928215613286579160200282015b828111156132855782518260006101000a81548173ffffffffffffffffffffffffffffffffffffffff021916908373ffffffffffffffffffffffffffffffffffffffff1602179055509160200191906001019061322d565b5b5090506132939190613297565b5090565b5b808211156132b0576000816000905550600101613298565b5090565b6000604051905090565b600080fd5b600080fd5b6000819050919050565b6132db816132c8565b81146132e657600080fd5b50565b6000813590506132f8816132d2565b92915050565b600060208284031215613314576133136132be565b5b6000613322848285016132e9565b91505092915050565b600060ff82169050919050565b6133418161332b565b811461334c57600080fd5b50565b60008135905061335e81613338565b92915050565b600080600080600060a086880312156133805761337f6132be565b5b600061338e8882890161334f565b955050602061339f8882890161334f565b94505060406133b08882890161334f565b93505060606133c18882890161334f565b92505060806133d2888289016132e9565b9150509295509295909350565b6133e8816132c8565b82525050565b600060208201905061340360008301846133df565b92915050565b600073ffffffffffffffffffffffffffffffffffffffff82169050919050565b600061343482613409565b9050919050565b61344481613429565b811461344f57600080fd5b50565b6000813590506134618161343b565b92915050565b60006020828403121561347d5761347c6132be565b5b600061348b84828501613452565b91505092915050565b61349d8161332b565b82525050565b60008115159050919050565b6134b8816134a3565b82525050565b6134c781613429565b82525050565b6000610180820190506134e3600083018f6133df565b6134f0602083018e613494565b6134fd604083018d613494565b61350a606083018c613494565b613517608083018b613494565b61352460a083018a6133df565b61353160c08301896133df565b61353e60e08301886134af565b61354c6101008301876134af565b61355a6101208301866134af565b6135686101408301856134be565b6135766101608301846134be565b9d9c50505050505050505050505050565b600080fd5b6000601f19601f8301169050919050565b7f4e487b7100000000000000000000000000000000000000000000000000000000600052604160045260246000fd5b6135d58261358c565b810181811067ffffffffffffffff821117156135f4576135f361359d565b5b80604052505050565b60006136076132b4565b905061361382826135cc565b919050565b600067ffffffffffffffff8211156136335761363261359d565b5b602082029050602081019050919050565b600080fd5b600061365c61365784613618565b6135fd565b9050808382526020820190506020840283018581111561367f5761367e613644565b5b835b818110156136a857806136948882613452565b845260208401935050602081019050613681565b5050509392505050565b600082601f8301126136c7576136c6613587565b5b81356136d7848260208601613649565b91505092915050565b6000602082840312156136f6576136f56132be565b5b600082013567ffffffffffffffff811115613714576137136132c3565b5b613720848285016136b2565b91505092915050565b7f4e487b7100000000000000000000000000000000000000000000000000000000600052603260045260246000fd5b600060608201905061376d60008301866134be565b61377a60208301856134be565b61378760408301846133df565b949350505050565b613798816134a3565b81146137a357600080fd5b50565b6000815190506137b58161378f565b92915050565b6000602082840312156137d1576137d06132be565b5b60006137df848285016137a6565b91505092915050565b7f4e487b7100000000000000000000000000000000000000000000000000000000600052601160045260246000fd5b6000613822826132c8565b915061382d836132c8565b9250827fffffffffffffffffffffffffffffffffffffffffffffffffffffffffffffffff03821115613862576138616137e8565b5b828201905092915050565b600082825260208201905092915050565b7f4f7074696f6e2068617320616c72656479206578706972656400000000000000600082015250565b60006138b460198361386d565b91506138bf8261387e565b602082019050919050565b600060208201905081810360008301526138e3816138a7565b9050919050565b7f4f7074696f6e20616c7265647920657865637574656400000000000000000000600082015250565b600061392060168361386d565b915061392b826138ea565b602082019050919050565b6000602082019050818103600083015261394f81613913565b9050919050565b7f4f7074696f6e2063616e206e6f742062652072656d6f76656400000000000000600082015250565b600061398c60198361386d565b915061399782613956565b602082019050919050565b600060208201905081810360008301526139bb8161397f565b9050919050565b7f43616c6c6572206973206e6f742074686520696e69746961746f720000000000600082015250565b60006139f8601b8361386d565b9150613a03826139c2565b602082019050919050565b60006020820190508181036000830152613a27816139eb565b9050919050565b6000613a39826132c8565b9150613a44836132c8565b925082821015613a5757613a566137e8565b5b828203905092915050565b6000613a6d8261332b565b9150613a788361332b565b92508160ff0483118215151615613a9257613a916137e8565b5b828202905092915050565b7f5573657220686173206e6f7420656e6f756768206d617267696e20746f20706560008201527f72666f726d2074686973206f7065726174696f6e000000000000000000000000602082015250565b6000613af960348361386d565b9150613b0482613a9d565b604082019050919050565b60006020820190508181036000830152613b2881613aec565b9050919050565b6000604082019050613b4460008301856134be565b613b5160208301846133df565b9392505050565b6000613b63826132c8565b9150613b6e836132c8565b9250817fffffffffffffffffffffffffffffffffffffffffffffffffffffffffffffffff0483118215151615613ba757613ba66137e8565b5b828202905092915050565b7f4e6f7420656e6f756768206d617267696e2063616c6c00000000000000000000600082015250565b6000613be860168361386d565b9150613bf382613bb2565b602082019050919050565b60006020820190508181036000830152613c1781613bdb565b9050919050565b7f4e6f7420656e6f756768206d617267696e207075740000000000000000000000600082015250565b6000613c5460158361386d565b9150613c5f82613c1e565b602082019050919050565b60006020820190508181036000830152613c8381613c47565b9050919050565b7f4f7074696f6e2063616e6e6f742062652072656d6f7665640000000000000000600082015250565b6000613cc060188361386d565b9150613ccb82613c8a565b602082019050919050565b60006020820190508181036000830152613cef81613cb3565b9050919050565b6000819050919050565b6000613d1b613d16613d118461332b565b613cf6565b6132c8565b9050919050565b613d2b81613d00565b82525050565b6000606082019050613d4660008301866134be565b613d5360208301856134be565b613d606040830184613d22565b94935050505056fe53686f756c6420646566696e65203020666f722063616c6c206f72203120666f7220707574a26469706673582212208b85a5f861ad892b694afa37c1812dc9377e8e5101efa11949e1760743091dc364736f6c634300080b0033",
  "immutableReferences": {},
  "source": "// SPDX-License-Identifier: MIT\r\npragma solidity ^0.8.2;\r\n\r\nimport \"@openzeppelin/contracts/interfaces/IERC20.sol\";\r\n\r\ncontract OptionDexv2 {\r\n\r\n    // event OptionInit (uint optionId , address indexed initiator, string sidePosition, uint amountDeposited, uint premium, uint futureSpot , uint startDate, uint expirationDate);\r\n    // event PositionPurchased (uint optionId , address indexed initiator, address indexed buyer, string sidePosition, uint amountDeposited, uint premium, uint futureSpot , uint startDate, uint purchasedDate, uint expirationDate);\r\n    // event LiquidationOverCollateralization(uint optionId, address indexed initiator, address indexed buyer, string sidePosition, uint amountDeposited, uint premium, uint futureSpot , uint startDate, uint LiquidationDate,\r\n    // uint expirationDate, address indexed keeper);\r\n\r\n    uint id;//id asigned to each option\r\n    address[] internal Token;// Token 0 is the underline asset Token 1 plays the role of an stablecoin\r\n    uint checkedPrice;//price that is reference at the expiration date\r\n    uint expirationTime = 5760;//average blocks produced per day\r\n\r\n    // scope to avoid stack too deep errors\r\n    struct Option {\r\n        uint _id; //each option has an id\r\n        uint8 futurePrice;//future price. The price of the native token at the option expiration date\r\n        uint8 premium; //value paid by the buyer to the initiator to have the right over the option\r\n        uint8 amount; //the amount of native token sold/bought in the option\r\n        uint8 sidePosition; //call(0) or put(1) \r\n        uint256 placedDate;//date when the option is created\r\n        uint256 expirationDate; //the date when the option can be settled\r\n        bool premiumPaid;//control if the premium was paid\r\n        bool expired;//based on the expirationDate the option can be settled (if expired) or not\r\n        bool executed; //true if the option has been settled\r\n        address initiator; //who starts the option by selling a put or a call\r\n        address buyer; //who purchases the option from the initiator\r\n    }\r\n    //stores all the updated order in the system\r\n    mapping(uint => Option) public orderBook;\r\n    \r\n    //the user needs to deposit some native token to starts the operation\r\n    //user margin controls the margin to allow users to initiate options\r\n    //every deposit increases the margin, all option initialization reduces the margin\r\n    //when a option is not settled at the expiration date the initiator has its margin released\r\n    //to create call options the initiator needs to deposit the native token\r\n    //to create put options the initiator needs to deposit an stable coin\r\n    mapping(address => uint) public availableMarginCall;\r\n    mapping(address => uint) public allocatedMarginCall;\r\n\r\n    mapping(address => uint) public availableMarginPut;\r\n    mapping(address => uint) public allocatedMarginPut;\r\n    \r\n    //keep a track on the user position in the system \r\n    //mapping(address => mapping(uint => Option[])) public userPositions;\r\n\r\n    function SetExpirationTime(uint _expirationTime) public {\r\n        expirationTime = _expirationTime;\r\n    }\r\n\r\n    function getExpirationTime() public view returns (uint){\r\n        return expirationTime;\r\n    }\r\n\r\n    //receives the user deposit in the native token and updates the availableMarginCall\r\n    function depositMarginCall(uint _amount) public{\r\n        IERC20(Token[0]).transferFrom(msg.sender, address(this), _amount);\r\n        availableMarginCall[msg.sender] = availableMarginCall[msg.sender] + _amount;\r\n    }\r\n\r\n    function withdrawMarginCall(uint _amount) public checkMarginCall(_amount){\r\n        availableMarginCall[msg.sender] = availableMarginCall[msg.sender] - _amount;\r\n        IERC20(Token[0]).transfer(msg.sender, _amount);\r\n    }\r\n\r\n    function depositMarginPut(uint _amount) public{\r\n        IERC20(Token[1]).transferFrom(msg.sender, address(this), _amount);\r\n        availableMarginPut[msg.sender] = availableMarginPut[msg.sender] + _amount;\r\n    }\r\n\r\n    function withdrawMarginPut(uint _amount) public checkMarginPut(_amount){\r\n        availableMarginPut[msg.sender] = availableMarginPut[msg.sender] - _amount;\r\n        IERC20(Token[1]).transfer(msg.sender, _amount);\r\n    }\r\n\r\n    //set the CRG Token to be used to purchase options\r\n    function setAcceptedToken(address[] memory _token) public {\r\n        Token = _token;\r\n    }\r\n\r\n    //Check if the user has available margin to perform operations\r\n    modifier checkMarginCall(uint amount){\r\n        require(amount <= availableMarginCall[msg.sender], 'User has not enough margin to perform this operation');\r\n        _;\r\n    }\r\n\r\n    modifier checkMarginPut(uint amount){\r\n        require(amount <= availableMarginPut[msg.sender], 'User has not enough margin to perform this operation');\r\n        _;\r\n    }\r\n\r\n    modifier notExecuted(uint _id){\r\n        require(!orderBook[_id].executed, 'Option alredy executed');\r\n        _;\r\n    }\r\n\r\n    modifier notExpired(uint _id){\r\n        require((orderBook[_id].expirationDate) <= block.number, 'Option has alredy expired'); //giving 1000 blocks bonus\r\n        _;\r\n    }\r\n\r\n    uint[] public options;//creates the options array that will be populated with the struct format in the initializePosition\r\n\r\n    //initialize a option position\r\n    function initializePosition(\r\n        uint8 _amount, \r\n        uint8 _sidePosition, \r\n        uint8 _premium, \r\n        uint8 _futurePrice, \r\n        uint256 _expirationDate\r\n        ) public {\r\n        \r\n        //each interaction increments the id\r\n        id = id + 1;\r\n\r\n        //instantiate the struct to create a option\r\n        Option memory option = Option (\r\n            \r\n            {\r\n                _id : id,\r\n                amount : _amount, //up to the user when create the option\r\n                sidePosition : _sidePosition, //up to the user when create the option\r\n                initiator : msg.sender,\r\n                buyer: 0x0000000000000000000000000000000000000000,//the buyer is not set, will be set once some user buys the option. See function EnterPosition\r\n                premium : _premium, //up to the user when create the option\r\n                premiumPaid : false, //as the option is being created at this point there is no premium paid\r\n                futurePrice : _futurePrice, //up to the user when create the option\r\n                placedDate : block.number, //the block number when the option was created\r\n                expirationDate : _expirationDate * expirationTime, //up to the user when create the option. Need to informed in days.\r\n                expired : false, //just creat the option\r\n                executed: false //just creat the option\r\n            }\r\n        );\r\n        if(_sidePosition == 0){\r\n            require(_amount <= availableMarginCall[msg.sender], 'Not enough margin call');\r\n            availableMarginCall[msg.sender] = availableMarginCall[msg.sender] - _amount; //updates the userMargin\r\n            allocatedMarginCall[msg.sender] = allocatedMarginCall[msg.sender] + _amount;\r\n        }else if(_sidePosition == 1){\r\n            require((_amount * _futurePrice) <= availableMarginPut[msg.sender], 'Not enough margin put');\r\n            availableMarginPut[msg.sender] = availableMarginPut[msg.sender] - (_amount * _futurePrice); //updates the userMargin\r\n            allocatedMarginPut[msg.sender] = allocatedMarginPut[msg.sender] + (_amount * _futurePrice);\r\n        }else {\r\n            string memory message = \"Should define 0 for call or 1 for put\";\r\n        }\r\n        options.push(option._id); //update the options array by pushin the struct above\r\n        orderBook[id] = option; //update the orderBook with the option struct. This will be use in the next updates to have buy and sell functionality to the users       \r\n}\r\n    // internal function to send the CRG Tokens from buyer to initiator when the buyer purchases the option\r\n    // the frontend dapp needs to request to the buyer to approve this contract to spend the money on his behalf by\r\n    // callint the Approve function in the CRG Token (ERC20 standard)\r\n    function _buyingTheOption(address _buyer, address _initiator, uint8 _premium) internal{\r\n        IERC20(Token[1]).transferFrom(_buyer, _initiator, _premium); \r\n    }\r\n\r\n    //called by the buyer to purchase an option    \r\n    function EnterPosition (uint _id) public notExpired(_id) notExecuted(_id){\r\n        Option memory _options = orderBook[_id];//initialize the option based on its recored in the orderBook\r\n        _options.premiumPaid = true; //once Paid set the premium paid to true\r\n        _options.buyer = msg.sender;//update the orderBook setting the buyer as msg.sender\r\n        _buyingTheOption(msg.sender, _options.initiator, _options.premium);//call the internal function to send the CRG Tokens (premium payment) to the initiator\r\n    }\r\n\r\n    //if the initiator wants to shutdown the option as long as no one purchased it\r\n    function shutDownOption(uint _id) public notExpired(_id) notExecuted(_id) {\r\n        require(!orderBook[_id].premiumPaid, 'Option can not be removed');\r\n        require(orderBook[_id].initiator == msg.sender, 'Caller is not the initiator');\r\n        Option memory _options = orderBook[_id];\r\n        _options.initiator = 0x0000000000000000000000000000000000000000;\r\n        _options.buyer = 0x0000000000000000000000000000000000000000;\r\n        if(orderBook[_id].sidePosition == 0){\r\n            allocatedMarginCall[msg.sender] = allocatedMarginCall[msg.sender] - _options.amount;\r\n            availableMarginCall[msg.sender] = availableMarginCall[msg.sender] + _options.amount; //updates the userMargin\r\n        }else if(orderBook[_id].sidePosition == 1){\r\n            allocatedMarginPut[msg.sender] = allocatedMarginPut[msg.sender] - ( _options.amount * _options.futurePrice);\r\n            availableMarginPut[msg.sender] = availableMarginPut[msg.sender] + ( _options.amount * _options.futurePrice); //updates the userMargin\r\n        }else {\r\n            string memory message = 'Error';\r\n        }\r\n    }\r\n\r\n    //Set the price of the underline asset token0\r\n    function setCheckPrice(uint _inputedPrice) public{\r\n        checkedPrice = _inputedPrice;\r\n    }\r\n    \r\n    //Get the price of the underline asset token0\r\n    function updateCheckPrice() public view returns (uint){\r\n        return checkedPrice; \r\n    }\r\n\r\n    //at the expiration date if the buyer want to settle its option he needs to pay the remaining amount. Val\r\n    function calculatingRemaingAmount(uint _id) public view returns (uint){\r\n        Option memory _options = orderBook[_id];\r\n        _options.amount;\r\n        _options.premium;\r\n        _options.sidePosition;\r\n        if(_options.sidePosition == 0){\r\n            uint total = _options.amount * checkedPrice;\r\n            uint remainingAmount =  total - _options.premium;\r\n            return remainingAmount;\r\n        }else if(_options.sidePosition == 1){\r\n            uint remainingAmount = _options.amount * checkedPrice;\r\n            return remainingAmount;\r\n        }else{\r\n            string memory message = \"error\";\r\n        }\r\n    }\r\n\r\n    // On the settlement event, if the buyer settles the option he needs to pays the remaining amount to the initiator using CRG Token.\r\n    // At this poin the DAPP called the Approve function in the CRG Token\r\n    function _sendRemainingAmountToInitiator(uint _id) internal {\r\n        Option memory _options = orderBook[_id];\r\n        uint remainingAmount = calculatingRemaingAmount(_id);\r\n        if(_options.sidePosition == 0){\r\n            IERC20(Token[1]).transferFrom(_options.buyer, _options.initiator, remainingAmount);\r\n        }else if(_options.sidePosition == 1){\r\n            IERC20(Token[0]).transferFrom(_options.buyer, _options.initiator, remainingAmount);\r\n        }else{\r\n            string memory message = \"error\";\r\n        }       \r\n        _options.expired = true;\r\n        _options.executed = true;\r\n        // _options.remainingAmountPaid = true;\r\n    }\r\n\r\n    //if the buyer settles the option, the contract transfers the native token to the buyer(call) or ERC20(put)\r\n    function _releaseAssetsToBuyer(uint _id) internal {\r\n        Option memory _options = orderBook[_id];\r\n        address initiator = _options.initiator;\r\n        address buyer = _options.buyer;\r\n        uint amount = _options.amount;\r\n        if(_options.sidePosition == 0){\r\n            allocatedMarginCall[initiator] = allocatedMarginCall[initiator] - _options.amount;\r\n            IERC20(Token[0]).transfer(buyer, amount);\r\n        }else if(_options.sidePosition == 1){\r\n            uint _value = _options.amount * _options.futurePrice;\r\n            allocatedMarginPut[initiator] = allocatedMarginPut[initiator] - _value;\r\n            IERC20(Token[1]).transfer(_options.buyer, _value);\r\n            \r\n        }else{\r\n            string memory message = 'error';\r\n        }\r\n    }\r\n\r\n    // in case a buyer paid the premium, however did not paid the remaining amount and the option is expired\r\n    // the initiator is able to release allocated margin\r\n    function releaseAllocatedMarginForAPremiumPaidExpiredOption(uint _id) public notExecuted(_id){\r\n        // require(orderBook[_id].remainingAmountPaid == true, 'Option can not be removed');\r\n        require(orderBook[_id].buyer != 0x0000000000000000000000000000000000000000 ,'Option cannot be removed');\r\n        require(orderBook[_id].initiator == msg.sender, 'Caller is not the initiator');\r\n        Option memory _options = orderBook[_id];\r\n        orderBook[_id].executed = true;\r\n        \r\n        if(_options.sidePosition == 0){\r\n            allocatedMarginCall[msg.sender] = allocatedMarginCall[msg.sender] + _options.amount;\r\n        }else if(_options.sidePosition == 1){\r\n            uint _value = _options.amount * _options.futurePrice;\r\n            allocatedMarginPut[msg.sender] = allocatedMarginPut[msg.sender] + _value;\r\n        }\r\n\r\n        _options.initiator = 0x0000000000000000000000000000000000000000;\r\n        _options.buyer = 0x0000000000000000000000000000000000000000;\r\n    }\r\n    \r\n    function Settlement (uint _id) public {\r\n        Option storage _options = orderBook[_id];\r\n        \r\n        uint _spotPrice = uint(updateCheckPrice());\r\n        \r\n        uint _value = _options.amount * _options.futurePrice;\r\n        if(_options.sidePosition == 0) {\r\n            if(_spotPrice >= _options.futurePrice){\r\n                _options.expired = true;\r\n                allocatedMarginCall[msg.sender] = allocatedMarginCall[msg.sender] - _options.amount;\r\n                availableMarginCall[msg.sender] = availableMarginCall[msg.sender] + _options.amount;                \r\n                }else{\r\n                _options.expired = true;\r\n                _sendRemainingAmountToInitiator(_id);\r\n                _releaseAssetsToBuyer(id);\r\n            }\r\n        }else if(_options.sidePosition == 1){\r\n            if(_spotPrice >= _options.futurePrice){\r\n                _options.expired = true;\r\n                allocatedMarginPut[msg.sender] = allocatedMarginPut[msg.sender] - _value;\r\n                availableMarginPut[msg.sender] = availableMarginPut[msg.sender] + _value;\r\n            }else{\r\n                _options.expired = true;\r\n                _sendRemainingAmountToInitiator(_id);\r\n                _releaseAssetsToBuyer(id);\r\n            }\r\n        }else{\r\n            string memory message = 'error';\r\n        }\r\n    }\r\n}",
  "sourcePath": "C:\\Users\\rafae\\Documents\\4. Estudos\\Projetos\\DeveloperBootCampConsensys\\blockchain-developer-bootcamp-final-project\\contracts\\OpDex_Draft.sol",
  "compiler": {
    "name": "solc",
    "version": "0.8.11+commit.d7f03943.Emscripten.clang"
  },
  "schemaVersion": "3.4.3",
  "updatedAt": "2022-01-14T00:30:47.781Z",
  "devdoc": {
    "kind": "dev",
    "methods": {},
    "version": 1
  },
  "userdoc": {
    "kind": "user",
    "methods": {},
    "version": 1
  }
}