{
  "contractName": "OptionDex",
  "abi": [
    {
      "inputs": [
        {
          "internalType": "address",
          "name": "",
          "type": "address"
        }
      ],
      "name": "allocatedMarginCall",
      "outputs": [
        {
          "internalType": "uint256",
          "name": "",
          "type": "uint256"
        }
      ],
      "stateMutability": "view",
      "type": "function"
    },
    {
      "inputs": [
        {
          "internalType": "address",
          "name": "",
          "type": "address"
        }
      ],
      "name": "allocatedMarginPut",
      "outputs": [
        {
          "internalType": "uint256",
          "name": "",
          "type": "uint256"
        }
      ],
      "stateMutability": "view",
      "type": "function"
    },
    {
      "inputs": [
        {
          "internalType": "address",
          "name": "",
          "type": "address"
        }
      ],
      "name": "availableMarginCall",
      "outputs": [
        {
          "internalType": "uint256",
          "name": "",
          "type": "uint256"
        }
      ],
      "stateMutability": "view",
      "type": "function"
    },
    {
      "inputs": [
        {
          "internalType": "address",
          "name": "",
          "type": "address"
        }
      ],
      "name": "availableMarginPut",
      "outputs": [
        {
          "internalType": "uint256",
          "name": "",
          "type": "uint256"
        }
      ],
      "stateMutability": "view",
      "type": "function"
    },
    {
      "inputs": [
        {
          "internalType": "uint256",
          "name": "",
          "type": "uint256"
        }
      ],
      "name": "options",
      "outputs": [
        {
          "internalType": "uint256",
          "name": "",
          "type": "uint256"
        }
      ],
      "stateMutability": "view",
      "type": "function"
    },
    {
      "inputs": [
        {
          "internalType": "uint256",
          "name": "",
          "type": "uint256"
        }
      ],
      "name": "orderBook",
      "outputs": [
        {
          "internalType": "uint256",
          "name": "_id",
          "type": "uint256"
        },
        {
          "internalType": "uint8",
          "name": "futurePrice",
          "type": "uint8"
        },
        {
          "internalType": "uint8",
          "name": "premium",
          "type": "uint8"
        },
        {
          "internalType": "uint8",
          "name": "amount",
          "type": "uint8"
        },
        {
          "internalType": "uint8",
          "name": "sidePosition",
          "type": "uint8"
        },
        {
          "internalType": "uint256",
          "name": "placedDate",
          "type": "uint256"
        },
        {
          "internalType": "uint256",
          "name": "expirationDate",
          "type": "uint256"
        },
        {
          "internalType": "bool",
          "name": "premiumPaid",
          "type": "bool"
        },
        {
          "internalType": "bool",
          "name": "expired",
          "type": "bool"
        },
        {
          "internalType": "bool",
          "name": "executed",
          "type": "bool"
        },
        {
          "internalType": "address payable",
          "name": "initiator",
          "type": "address"
        },
        {
          "internalType": "address payable",
          "name": "buyer",
          "type": "address"
        }
      ],
      "stateMutability": "view",
      "type": "function"
    },
    {
      "inputs": [
        {
          "internalType": "uint256",
          "name": "_expirationTime",
          "type": "uint256"
        }
      ],
      "name": "SetexpirationTime",
      "outputs": [],
      "stateMutability": "nonpayable",
      "type": "function"
    },
    {
      "inputs": [],
      "name": "getExpirationTime",
      "outputs": [
        {
          "internalType": "uint256",
          "name": "",
          "type": "uint256"
        }
      ],
      "stateMutability": "view",
      "type": "function"
    },
    {
      "inputs": [
        {
          "internalType": "uint256",
          "name": "_amount",
          "type": "uint256"
        }
      ],
      "name": "deposit",
      "outputs": [],
      "stateMutability": "payable",
      "type": "function"
    },
    {
      "inputs": [
        {
          "internalType": "address payable",
          "name": "_to",
          "type": "address"
        },
        {
          "internalType": "uint256",
          "name": "_amount",
          "type": "uint256"
        }
      ],
      "name": "withdrawMarginCall",
      "outputs": [],
      "stateMutability": "payable",
      "type": "function"
    },
    {
      "inputs": [
        {
          "internalType": "uint256",
          "name": "_amount",
          "type": "uint256"
        }
      ],
      "name": "depositMarginPut",
      "outputs": [],
      "stateMutability": "nonpayable",
      "type": "function"
    },
    {
      "inputs": [
        {
          "internalType": "uint256",
          "name": "_amount",
          "type": "uint256"
        }
      ],
      "name": "withdrawMarginPut",
      "outputs": [],
      "stateMutability": "nonpayable",
      "type": "function"
    },
    {
      "inputs": [
        {
          "internalType": "address",
          "name": "_token",
          "type": "address"
        }
      ],
      "name": "setAcceptedToken",
      "outputs": [],
      "stateMutability": "nonpayable",
      "type": "function"
    },
    {
      "inputs": [
        {
          "internalType": "uint8",
          "name": "_amount",
          "type": "uint8"
        },
        {
          "internalType": "uint8",
          "name": "_sidePosition",
          "type": "uint8"
        },
        {
          "internalType": "uint8",
          "name": "_premium",
          "type": "uint8"
        },
        {
          "internalType": "uint8",
          "name": "_futurePrice",
          "type": "uint8"
        },
        {
          "internalType": "uint256",
          "name": "_expirationDate",
          "type": "uint256"
        }
      ],
      "name": "initializePosition",
      "outputs": [],
      "stateMutability": "nonpayable",
      "type": "function"
    },
    {
      "inputs": [
        {
          "internalType": "uint256",
          "name": "_id",
          "type": "uint256"
        }
      ],
      "name": "EnterPosition",
      "outputs": [],
      "stateMutability": "nonpayable",
      "type": "function"
    },
    {
      "inputs": [
        {
          "internalType": "uint256",
          "name": "_id",
          "type": "uint256"
        }
      ],
      "name": "shutDownOption",
      "outputs": [],
      "stateMutability": "nonpayable",
      "type": "function"
    },
    {
      "inputs": [
        {
          "internalType": "uint256",
          "name": "_inputedPrice",
          "type": "uint256"
        }
      ],
      "name": "setCheckPrice",
      "outputs": [],
      "stateMutability": "nonpayable",
      "type": "function"
    },
    {
      "inputs": [],
      "name": "updateCheckPrice",
      "outputs": [
        {
          "internalType": "uint256",
          "name": "",
          "type": "uint256"
        }
      ],
      "stateMutability": "view",
      "type": "function"
    },
    {
      "inputs": [
        {
          "internalType": "uint256",
          "name": "_id",
          "type": "uint256"
        }
      ],
      "name": "calculatingRemaingAmount",
      "outputs": [
        {
          "internalType": "uint256",
          "name": "",
          "type": "uint256"
        }
      ],
      "stateMutability": "view",
      "type": "function"
    },
    {
      "inputs": [
        {
          "internalType": "uint256",
          "name": "_id",
          "type": "uint256"
        }
      ],
      "name": "releaseAllocatedMarginForAPremiumPaidExpiredOption",
      "outputs": [],
      "stateMutability": "nonpayable",
      "type": "function"
    },
    {
      "inputs": [
        {
          "internalType": "uint256",
          "name": "_id",
          "type": "uint256"
        }
      ],
      "name": "Settlement",
      "outputs": [],
      "stateMutability": "nonpayable",
      "type": "function"
    }
  ],
  "bytecode": "0x608060405261168060035534801561001657600080fd5b50613e1b806100266000396000f3fe60806040526004361061012a5760003560e01c80637a70845d116100ab578063b6b55f251161006f578063b6b55f25146103fa578063bd9d8e5b14610416578063e23a845a1461043f578063edae2a831461046a578063fa194f79146104a7578063fdfc8b70146104e45761012a565b80637a70845d146102fa578063a20b6e3414610323578063ab584a791461036b578063ad7deb76146103a8578063b277a6e6146103d15761012a565b8063469272a2116100f2578063469272a2146102035780634efc9a0d1461024057806365d4dbe21461027d5780637487f528146102a8578063773d5161146102d15761012a565b80631dc8d2a01461012f57806326bc91431461014b57806334efd53a146101745780633dce082b1461019d578063409e2205146101c6575b600080fd5b61014960048036038101906101449190613391565b61050d565b005b34801561015757600080fd5b50610172600480360381019061016d91906133d1565b610645565b005b34801561018057600080fd5b5061019b600480360381019061019691906133d1565b610d5c565b005b3480156101a957600080fd5b506101c460048036038101906101bf9190613437565b610e84565b005b3480156101d257600080fd5b506101ed60048036038101906101e891906133d1565b6114d2565b6040516101fa91906134c1565b60405180910390f35b34801561020f57600080fd5b5061022a6004803603810190610225919061351a565b6114f6565b60405161023791906134c1565b60405180910390f35b34801561024c57600080fd5b506102676004803603810190610262919061351a565b61150e565b60405161027491906134c1565b60405180910390f35b34801561028957600080fd5b50610292611526565b60405161029f91906134c1565b60405180910390f35b3480156102b457600080fd5b506102cf60048036038101906102ca919061351a565b611530565b005b3480156102dd57600080fd5b506102f860048036038101906102f391906133d1565b611574565b005b34801561030657600080fd5b50610321600480360381019061031c91906133d1565b61157e565b005b34801561032f57600080fd5b5061034a600480360381019061034591906133d1565b611b48565b6040516103629c9b9a99989796959493929190613580565b60405180910390f35b34801561037757600080fd5b50610392600480360381019061038d919061351a565b611c43565b60405161039f91906134c1565b60405180910390f35b3480156103b457600080fd5b506103cf60048036038101906103ca91906133d1565b611c5b565b005b3480156103dd57600080fd5b506103f860048036038101906103f391906133d1565b611c65565b005b610414600480360381019061040f91906133d1565b611f54565b005b34801561042257600080fd5b5061043d600480360381019061043891906133d1565b611fe5565b005b34801561044b57600080fd5b50610454612119565b60405161046191906134c1565b60405180910390f35b34801561047657600080fd5b50610491600480360381019061048c91906133d1565b612123565b60405161049e91906134c1565b60405180910390f35b3480156104b357600080fd5b506104ce60048036038101906104c9919061351a565b6123a8565b6040516104db91906134c1565b60405180910390f35b3480156104f057600080fd5b5061050b600480360381019061050691906133d1565b6123c0565b005b80600560003373ffffffffffffffffffffffffffffffffffffffff1673ffffffffffffffffffffffffffffffffffffffff16815260200190815260200160002054811115610590576040517f08c379a0000000000000000000000000000000000000000000000000000000008152600401610587906136bd565b60405180910390fd5b6000808473ffffffffffffffffffffffffffffffffffffffff16846040516105b79061370e565b60006040518083038185875af1925050503d80600081146105f4576040519150601f19603f3d011682016040523d82523d6000602084013e6105f9565b606091505b50915091508161063e576040517f08c379a00000000000000000000000000000000000000000000000000000000081526004016106359061376f565b60405180910390fd5b5050505050565b80436103e8600460008481526020019081526020016000206003015461066b91906137be565b11156106ac576040517f08c379a00000000000000000000000000000000000000000000000000000000081526004016106a390613860565b60405180910390fd5b816004600082815260200190815260200160002060040160029054906101000a900460ff1615610711576040517f08c379a0000000000000000000000000000000000000000000000000000000008152600401610708906138cc565b60405180910390fd5b6004600084815260200190815260200160002060040160009054906101000a900460ff1615610775576040517f08c379a000000000000000000000000000000000000000000000000000000000815260040161076c90613938565b60405180910390fd5b3373ffffffffffffffffffffffffffffffffffffffff166004600085815260200190815260200160002060040160039054906101000a900473ffffffffffffffffffffffffffffffffffffffff1673ffffffffffffffffffffffffffffffffffffffff1614610819576040517f08c379a0000000000000000000000000000000000000000000000000000000008152600401610810906139a4565b60405180910390fd5b60006004600085815260200190815260200160002060405180610180016040529081600082015481526020016001820160009054906101000a900460ff1660ff1660ff1681526020016001820160019054906101000a900460ff1660ff1660ff1681526020016001820160029054906101000a900460ff1660ff1660ff1681526020016001820160039054906101000a900460ff1660ff1660ff16815260200160028201548152602001600382015481526020016004820160009054906101000a900460ff161515151581526020016004820160019054906101000a900460ff161515151581526020016004820160029054906101000a900460ff161515151581526020016004820160039054906101000a900473ffffffffffffffffffffffffffffffffffffffff1673ffffffffffffffffffffffffffffffffffffffff1673ffffffffffffffffffffffffffffffffffffffff1681526020016005820160009054906101000a900473ffffffffffffffffffffffffffffffffffffffff1673ffffffffffffffffffffffffffffffffffffffff1673ffffffffffffffffffffffffffffffffffffffff16815250509050600081610140019073ffffffffffffffffffffffffffffffffffffffff16908173ffffffffffffffffffffffffffffffffffffffff1681525050600081610160019073ffffffffffffffffffffffffffffffffffffffff16908173ffffffffffffffffffffffffffffffffffffffff168152505060006004600086815260200190815260200160002060010160039054906101000a900460ff1660ff161415610b9d57806060015160ff16600560003373ffffffffffffffffffffffffffffffffffffffff1673ffffffffffffffffffffffffffffffffffffffff16815260200190815260200160002054610ac091906137be565b600560003373ffffffffffffffffffffffffffffffffffffffff1673ffffffffffffffffffffffffffffffffffffffff16815260200190815260200160002081905550806060015160ff16600660003373ffffffffffffffffffffffffffffffffffffffff1673ffffffffffffffffffffffffffffffffffffffff16815260200190815260200160002054610b5591906139c4565b600660003373ffffffffffffffffffffffffffffffffffffffff1673ffffffffffffffffffffffffffffffffffffffff16815260200190815260200160002081905550610d56565b60016004600086815260200190815260200160002060010160039054906101000a900460ff1660ff161415610d195780602001518160600151610be091906139f8565b60ff16600760003373ffffffffffffffffffffffffffffffffffffffff1673ffffffffffffffffffffffffffffffffffffffff16815260200190815260200160002054610c2d91906137be565b600760003373ffffffffffffffffffffffffffffffffffffffff1673ffffffffffffffffffffffffffffffffffffffff1681526020019081526020016000208190555080602001518160600151610c8491906139f8565b60ff16600860003373ffffffffffffffffffffffffffffffffffffffff1673ffffffffffffffffffffffffffffffffffffffff16815260200190815260200160002054610cd191906139c4565b600860003373ffffffffffffffffffffffffffffffffffffffff1673ffffffffffffffffffffffffffffffffffffffff16815260200190815260200160002081905550610d55565b60006040518060400160405280600581526020017f4572726f720000000000000000000000000000000000000000000000000000008152509050505b5b50505050565b80600760003373ffffffffffffffffffffffffffffffffffffffff1673ffffffffffffffffffffffffffffffffffffffff16815260200190815260200160002054811115610ddf576040517f08c379a0000000000000000000000000000000000000000000000000000000008152600401610dd6906136bd565b60405180910390fd5b600160009054906101000a900473ffffffffffffffffffffffffffffffffffffffff1673ffffffffffffffffffffffffffffffffffffffff1663a9059cbb33846040518363ffffffff1660e01b8152600401610e3c929190613a42565b6020604051808303816000875af1158015610e5b573d6000803e3d6000fd5b505050506040513d601f19601f82011682018060405250810190610e7f9190613a97565b505050565b6001600054610e9391906137be565b600081905550600060405180610180016040528060005481526020018460ff1681526020018560ff1681526020018760ff1681526020018660ff16815260200143815260200160035484610ee79190613ac4565b81526020016000151581526020016000151581526020016000151581526020013373ffffffffffffffffffffffffffffffffffffffff168152602001600073ffffffffffffffffffffffffffffffffffffffff16815250905060008560ff1614156110f857600560003373ffffffffffffffffffffffffffffffffffffffff1673ffffffffffffffffffffffffffffffffffffffff168152602001908152602001600020548660ff161115610fd1576040517f08c379a0000000000000000000000000000000000000000000000000000000008152600401610fc890613b6a565b60405180910390fd5b8560ff16600560003373ffffffffffffffffffffffffffffffffffffffff1673ffffffffffffffffffffffffffffffffffffffff1681526020019081526020016000205461101f91906139c4565b600560003373ffffffffffffffffffffffffffffffffffffffff1673ffffffffffffffffffffffffffffffffffffffff168152602001908152602001600020819055508560ff16600660003373ffffffffffffffffffffffffffffffffffffffff1673ffffffffffffffffffffffffffffffffffffffff168152602001908152602001600020546110b091906137be565b600660003373ffffffffffffffffffffffffffffffffffffffff1673ffffffffffffffffffffffffffffffffffffffff168152602001908152602001600020819055506112f1565b60018560ff1614156112d157600760003373ffffffffffffffffffffffffffffffffffffffff1673ffffffffffffffffffffffffffffffffffffffff16815260200190815260200160002054838761115091906139f8565b60ff161115611194576040517f08c379a000000000000000000000000000000000000000000000000000000000815260040161118b90613bd6565b60405180910390fd5b82866111a091906139f8565b60ff16600760003373ffffffffffffffffffffffffffffffffffffffff1673ffffffffffffffffffffffffffffffffffffffff168152602001908152602001600020546111ed91906139c4565b600760003373ffffffffffffffffffffffffffffffffffffffff1673ffffffffffffffffffffffffffffffffffffffff16815260200190815260200160002081905550828661123c91906139f8565b60ff16600860003373ffffffffffffffffffffffffffffffffffffffff1673ffffffffffffffffffffffffffffffffffffffff1681526020019081526020016000205461128991906137be565b600860003373ffffffffffffffffffffffffffffffffffffffff1673ffffffffffffffffffffffffffffffffffffffff168152602001908152602001600020819055506112f0565b6000604051806060016040528060258152602001613dc1602591399050505b5b6009816000015190806001815401808255809150506001900390600052602060002001600090919091909150558060046000805481526020019081526020016000206000820151816000015560208201518160010160006101000a81548160ff021916908360ff16021790555060408201518160010160016101000a81548160ff021916908360ff16021790555060608201518160010160026101000a81548160ff021916908360ff16021790555060808201518160010160036101000a81548160ff021916908360ff16021790555060a0820151816002015560c0820151816003015560e08201518160040160006101000a81548160ff0219169083151502179055506101008201518160040160016101000a81548160ff0219169083151502179055506101208201518160040160026101000a81548160ff0219169083151502179055506101408201518160040160036101000a81548173ffffffffffffffffffffffffffffffffffffffff021916908373ffffffffffffffffffffffffffffffffffffffff1602179055506101608201518160050160006101000a81548173ffffffffffffffffffffffffffffffffffffffff021916908373ffffffffffffffffffffffffffffffffffffffff160217905550905050505050505050565b600981815481106114e257600080fd5b906000526020600020016000915090505481565b60086020528060005260406000206000915090505481565b60066020528060005260406000206000915090505481565b6000600254905090565b80600160006101000a81548173ffffffffffffffffffffffffffffffffffffffff021916908373ffffffffffffffffffffffffffffffffffffffff16021790555050565b8060038190555050565b6000600460008381526020019081526020016000209050600061159f611526565b905060008260010160009054906101000a900460ff168360010160029054906101000a900460ff166115d191906139f8565b60ff16905060008360010160039054906101000a900460ff1660ff161415611893578260010160009054906101000a900460ff1660ff16821061185c5760018360040160016101000a81548160ff0219169083151502179055506000808460040160039054906101000a900473ffffffffffffffffffffffffffffffffffffffff1673ffffffffffffffffffffffffffffffffffffffff168560010160029054906101000a900460ff1660ff1660405161168a9061370e565b60006040518083038185875af1925050503d80600081146116c7576040519150601f19603f3d011682016040523d82523d6000602084013e6116cc565b606091505b509150915081611711576040517f08c379a000000000000000000000000000000000000000000000000000000000815260040161170890613c42565b60405180910390fd5b8460010160029054906101000a900460ff1660ff16600660003373ffffffffffffffffffffffffffffffffffffffff1673ffffffffffffffffffffffffffffffffffffffff1681526020019081526020016000205461177091906139c4565b600660003373ffffffffffffffffffffffffffffffffffffffff1673ffffffffffffffffffffffffffffffffffffffff168152602001908152602001600020819055508460010160029054906101000a900460ff1660ff16600560003373ffffffffffffffffffffffffffffffffffffffff1673ffffffffffffffffffffffffffffffffffffffff1681526020019081526020016000205461181291906137be565b600560003373ffffffffffffffffffffffffffffffffffffffff1673ffffffffffffffffffffffffffffffffffffffff16815260200190815260200160002081905550505061188e565b60018360040160016101000a81548160ff021916908315150217905550611882846129eb565b61188d600054612d97565b5b611b42565b60018360010160039054906101000a900460ff1660ff161415611b05578260010160009054906101000a900460ff1660ff168210611ace5760018360040160016101000a81548160ff02191690831515021790555080600860003373ffffffffffffffffffffffffffffffffffffffff1673ffffffffffffffffffffffffffffffffffffffff1681526020019081526020016000205461193391906139c4565b600860003373ffffffffffffffffffffffffffffffffffffffff1673ffffffffffffffffffffffffffffffffffffffff1681526020019081526020016000208190555080600760003373ffffffffffffffffffffffffffffffffffffffff1673ffffffffffffffffffffffffffffffffffffffff168152602001908152602001600020546119c191906137be565b600760003373ffffffffffffffffffffffffffffffffffffffff1673ffffffffffffffffffffffffffffffffffffffff16815260200190815260200160002081905550600160009054906101000a900473ffffffffffffffffffffffffffffffffffffffff1673ffffffffffffffffffffffffffffffffffffffff1663a9059cbb8460040160039054906101000a900473ffffffffffffffffffffffffffffffffffffffff16836040518363ffffffff1660e01b8152600401611a85929190613cc1565b6020604051808303816000875af1158015611aa4573d6000803e3d6000fd5b505050506040513d601f19601f82011682018060405250810190611ac89190613a97565b50611b00565b60018360040160016101000a81548160ff021916908315150217905550611af4846129eb565b611aff600054612d97565b5b611b41565b60006040518060400160405280600581526020017f6572726f720000000000000000000000000000000000000000000000000000008152509050505b5b50505050565b60046020528060005260406000206000915090508060000154908060010160009054906101000a900460ff16908060010160019054906101000a900460ff16908060010160029054906101000a900460ff16908060010160039054906101000a900460ff16908060020154908060030154908060040160009054906101000a900460ff16908060040160019054906101000a900460ff16908060040160029054906101000a900460ff16908060040160039054906101000a900473ffffffffffffffffffffffffffffffffffffffff16908060050160009054906101000a900473ffffffffffffffffffffffffffffffffffffffff1690508c565b60056020528060005260406000206000915090505481565b8060028190555050565b80436103e86004600084815260200190815260200160002060030154611c8b91906137be565b1115611ccc576040517f08c379a0000000000000000000000000000000000000000000000000000000008152600401611cc390613860565b60405180910390fd5b816004600082815260200190815260200160002060040160029054906101000a900460ff1615611d31576040517f08c379a0000000000000000000000000000000000000000000000000000000008152600401611d28906138cc565b60405180910390fd5b60006004600085815260200190815260200160002060405180610180016040529081600082015481526020016001820160009054906101000a900460ff1660ff1660ff1681526020016001820160019054906101000a900460ff1660ff1660ff1681526020016001820160029054906101000a900460ff1660ff1660ff1681526020016001820160039054906101000a900460ff1660ff1660ff16815260200160028201548152602001600382015481526020016004820160009054906101000a900460ff161515151581526020016004820160019054906101000a900460ff161515151581526020016004820160029054906101000a900460ff161515151581526020016004820160039054906101000a900473ffffffffffffffffffffffffffffffffffffffff1673ffffffffffffffffffffffffffffffffffffffff1673ffffffffffffffffffffffffffffffffffffffff1681526020016005820160009054906101000a900473ffffffffffffffffffffffffffffffffffffffff1673ffffffffffffffffffffffffffffffffffffffff1673ffffffffffffffffffffffffffffffffffffffff1681525050905080610140015150806040015150611f04338261014001518360400151613250565b60018160e00190151590811515815250503381610160019073ffffffffffffffffffffffffffffffffffffffff16908173ffffffffffffffffffffffffffffffffffffffff168152505050505050565b80600560003373ffffffffffffffffffffffffffffffffffffffff1673ffffffffffffffffffffffffffffffffffffffff16815260200190815260200160002054611f9f91906137be565b600560003373ffffffffffffffffffffffffffffffffffffffff1673ffffffffffffffffffffffffffffffffffffffff1681526020019081526020016000208190555050565b600160009054906101000a900473ffffffffffffffffffffffffffffffffffffffff1673ffffffffffffffffffffffffffffffffffffffff166323b872dd3330846040518463ffffffff1660e01b815260040161204493929190613cea565b6020604051808303816000875af1158015612063573d6000803e3d6000fd5b505050506040513d601f19601f820116820180604052508101906120879190613a97565b5080600760003373ffffffffffffffffffffffffffffffffffffffff1673ffffffffffffffffffffffffffffffffffffffff168152602001908152602001600020546120d391906137be565b600760003373ffffffffffffffffffffffffffffffffffffffff1673ffffffffffffffffffffffffffffffffffffffff1681526020019081526020016000208190555050565b6000600354905090565b6000806004600084815260200190815260200160002060405180610180016040529081600082015481526020016001820160009054906101000a900460ff1660ff1660ff1681526020016001820160019054906101000a900460ff1660ff1660ff1681526020016001820160029054906101000a900460ff1660ff1660ff1681526020016001820160039054906101000a900460ff1660ff1660ff16815260200160028201548152602001600382015481526020016004820160009054906101000a900460ff161515151581526020016004820160019054906101000a900460ff161515151581526020016004820160029054906101000a900460ff161515151581526020016004820160039054906101000a900473ffffffffffffffffffffffffffffffffffffffff1673ffffffffffffffffffffffffffffffffffffffff1673ffffffffffffffffffffffffffffffffffffffff1681526020016005820160009054906101000a900473ffffffffffffffffffffffffffffffffffffffff1673ffffffffffffffffffffffffffffffffffffffff1673ffffffffffffffffffffffffffffffffffffffff168152505090508060600151508060400151508060800151506000816080015160ff161415612333576000600254826060015160ff1661230f9190613ac4565b90506000826040015160ff168261232691906139c4565b90508093505050506123a3565b6001816080015160ff161415612366576000600254826060015160ff1661235a9190613ac4565b905080925050506123a3565b60006040518060400160405280600581526020017f6572726f72000000000000000000000000000000000000000000000000000000815250905050505b919050565b60076020528060005260406000206000915090505481565b806004600082815260200190815260200160002060040160029054906101000a900460ff1615612425576040517f08c379a000000000000000000000000000000000000000000000000000000000815260040161241c906138cc565b60405180910390fd5b3373ffffffffffffffffffffffffffffffffffffffff166004600084815260200190815260200160002060040160039054906101000a900473ffffffffffffffffffffffffffffffffffffffff1673ffffffffffffffffffffffffffffffffffffffff16146124c9576040517f08c379a00000000000000000000000000000000000000000000000000000000081526004016124c0906139a4565b60405180910390fd5b60006004600084815260200190815260200160002060405180610180016040529081600082015481526020016001820160009054906101000a900460ff1660ff1660ff1681526020016001820160019054906101000a900460ff1660ff1660ff1681526020016001820160029054906101000a900460ff1660ff1660ff1681526020016001820160039054906101000a900460ff1660ff1660ff16815260200160028201548152602001600382015481526020016004820160009054906101000a900460ff161515151581526020016004820160019054906101000a900460ff161515151581526020016004820160029054906101000a900460ff161515151581526020016004820160039054906101000a900473ffffffffffffffffffffffffffffffffffffffff1673ffffffffffffffffffffffffffffffffffffffff1673ffffffffffffffffffffffffffffffffffffffff1681526020016005820160009054906101000a900473ffffffffffffffffffffffffffffffffffffffff1673ffffffffffffffffffffffffffffffffffffffff1673ffffffffffffffffffffffffffffffffffffffff1681525050905060016004600085815260200190815260200160002060040160026101000a81548160ff0219169083151502179055506000816080015160ff1614156128105760008082610140015173ffffffffffffffffffffffffffffffffffffffff16836060015160ff166040516126ed9061370e565b60006040518083038185875af1925050503d806000811461272a576040519150601f19603f3d011682016040523d82523d6000602084013e61272f565b606091505b509150915081612774576040517f08c379a000000000000000000000000000000000000000000000000000000000815260040161276b90613c42565b60405180910390fd5b826060015160ff16600660003373ffffffffffffffffffffffffffffffffffffffff1673ffffffffffffffffffffffffffffffffffffffff168152602001908152602001600020546127c691906137be565b600660003373ffffffffffffffffffffffffffffffffffffffff1673ffffffffffffffffffffffffffffffffffffffff168152602001908152602001600020819055505050612972565b6001816080015160ff1614156129715760008160200151826060015161283691906139f8565b60ff169050600160009054906101000a900473ffffffffffffffffffffffffffffffffffffffff1673ffffffffffffffffffffffffffffffffffffffff1663a9059cbb836101400151836040518363ffffffff1660e01b815260040161289d929190613cc1565b6020604051808303816000875af11580156128bc573d6000803e3d6000fd5b505050506040513d601f19601f820116820180604052508101906128e09190613a97565b5080600860003373ffffffffffffffffffffffffffffffffffffffff1673ffffffffffffffffffffffffffffffffffffffff1681526020019081526020016000205461292c91906137be565b600860003373ffffffffffffffffffffffffffffffffffffffff1673ffffffffffffffffffffffffffffffffffffffff16815260200190815260200160002081905550505b5b600081610140019073ffffffffffffffffffffffffffffffffffffffff16908173ffffffffffffffffffffffffffffffffffffffff1681525050600081610160019073ffffffffffffffffffffffffffffffffffffffff16908173ffffffffffffffffffffffffffffffffffffffff1681525050505050565b60006004600083815260200190815260200160002060405180610180016040529081600082015481526020016001820160009054906101000a900460ff1660ff1660ff1681526020016001820160019054906101000a900460ff1660ff1660ff1681526020016001820160029054906101000a900460ff1660ff1660ff1681526020016001820160039054906101000a900460ff1660ff1660ff16815260200160028201548152602001600382015481526020016004820160009054906101000a900460ff161515151581526020016004820160019054906101000a900460ff161515151581526020016004820160029054906101000a900460ff161515151581526020016004820160039054906101000a900473ffffffffffffffffffffffffffffffffffffffff1673ffffffffffffffffffffffffffffffffffffffff1673ffffffffffffffffffffffffffffffffffffffff1681526020016005820160009054906101000a900473ffffffffffffffffffffffffffffffffffffffff1673ffffffffffffffffffffffffffffffffffffffff1673ffffffffffffffffffffffffffffffffffffffff168152505090506000612ba883612123565b90506000826080015160ff161415612c6c57600160009054906101000a900473ffffffffffffffffffffffffffffffffffffffff1673ffffffffffffffffffffffffffffffffffffffff166323b872dd836101600151846101400151846040518463ffffffff1660e01b8152600401612c2393929190613d21565b6020604051808303816000875af1158015612c42573d6000803e3d6000fd5b505050506040513d601f19601f82011682018060405250810190612c669190613a97565b50612d6e565b6001826080015160ff161415612d31576000803073ffffffffffffffffffffffffffffffffffffffff1683604051612ca39061370e565b60006040518083038185875af1925050503d8060008114612ce0576040519150601f19603f3d011682016040523d82523d6000602084013e612ce5565b606091505b509150915081612d2a576040517f08c379a0000000000000000000000000000000000000000000000000000000008152600401612d2190613c42565b60405180910390fd5b5050612d6d565b60006040518060400160405280600581526020017f6572726f720000000000000000000000000000000000000000000000000000008152509050505b5b600182610100019015159081151581525050600182610120019015159081151581525050505050565b60006004600083815260200190815260200160002060405180610180016040529081600082015481526020016001820160009054906101000a900460ff1660ff1660ff1681526020016001820160019054906101000a900460ff1660ff1660ff1681526020016001820160029054906101000a900460ff1660ff1660ff1681526020016001820160039054906101000a900460ff1660ff1660ff16815260200160028201548152602001600382015481526020016004820160009054906101000a900460ff161515151581526020016004820160019054906101000a900460ff161515151581526020016004820160029054906101000a900460ff161515151581526020016004820160039054906101000a900473ffffffffffffffffffffffffffffffffffffffff1673ffffffffffffffffffffffffffffffffffffffff1673ffffffffffffffffffffffffffffffffffffffff1681526020016005820160009054906101000a900473ffffffffffffffffffffffffffffffffffffffff1673ffffffffffffffffffffffffffffffffffffffff1673ffffffffffffffffffffffffffffffffffffffff168152505090506000816080015160ff1614156130aa576000803073ffffffffffffffffffffffffffffffffffffffff16836060015160ff16604051612f879061370e565b60006040518083038185875af1925050503d8060008114612fc4576040519150601f19603f3d011682016040523d82523d6000602084013e612fc9565b606091505b50915091508161300e576040517f08c379a000000000000000000000000000000000000000000000000000000000815260040161300590613c42565b60405180910390fd5b826060015160ff16600660003373ffffffffffffffffffffffffffffffffffffffff1673ffffffffffffffffffffffffffffffffffffffff1681526020019081526020016000205461306091906139c4565b600660003373ffffffffffffffffffffffffffffffffffffffff1673ffffffffffffffffffffffffffffffffffffffff16815260200190815260200160002081905550505061324c565b6001816080015160ff16141561320f576000816020015182606001516130d091906139f8565b60ff169050600160009054906101000a900473ffffffffffffffffffffffffffffffffffffffff1673ffffffffffffffffffffffffffffffffffffffff1663a9059cbb836101600151836040518363ffffffff1660e01b8152600401613137929190613cc1565b6020604051808303816000875af1158015613156573d6000803e3d6000fd5b505050506040513d601f19601f8201168201806040525081019061317a9190613a97565b5080600860003373ffffffffffffffffffffffffffffffffffffffff1673ffffffffffffffffffffffffffffffffffffffff168152602001908152602001600020546131c691906139c4565b600860003373ffffffffffffffffffffffffffffffffffffffff1673ffffffffffffffffffffffffffffffffffffffff168152602001908152602001600020819055505061324b565b60006040518060400160405280600581526020017f6572726f720000000000000000000000000000000000000000000000000000008152509050505b5b5050565b600160009054906101000a900473ffffffffffffffffffffffffffffffffffffffff1673ffffffffffffffffffffffffffffffffffffffff166323b872dd8484846040518463ffffffff1660e01b81526004016132af93929190613d89565b6020604051808303816000875af11580156132ce573d6000803e3d6000fd5b505050506040513d601f19601f820116820180604052508101906132f29190613a97565b50505050565b600080fd5b600073ffffffffffffffffffffffffffffffffffffffff82169050919050565b6000613328826132fd565b9050919050565b6133388161331d565b811461334357600080fd5b50565b6000813590506133558161332f565b92915050565b6000819050919050565b61336e8161335b565b811461337957600080fd5b50565b60008135905061338b81613365565b92915050565b600080604083850312156133a8576133a76132f8565b5b60006133b685828601613346565b92505060206133c78582860161337c565b9150509250929050565b6000602082840312156133e7576133e66132f8565b5b60006133f58482850161337c565b91505092915050565b600060ff82169050919050565b613414816133fe565b811461341f57600080fd5b50565b6000813590506134318161340b565b92915050565b600080600080600060a08688031215613453576134526132f8565b5b600061346188828901613422565b955050602061347288828901613422565b945050604061348388828901613422565b935050606061349488828901613422565b92505060806134a58882890161337c565b9150509295509295909350565b6134bb8161335b565b82525050565b60006020820190506134d660008301846134b2565b92915050565b60006134e7826132fd565b9050919050565b6134f7816134dc565b811461350257600080fd5b50565b600081359050613514816134ee565b92915050565b6000602082840312156135305761352f6132f8565b5b600061353e84828501613505565b91505092915050565b613550816133fe565b82525050565b60008115159050919050565b61356b81613556565b82525050565b61357a8161331d565b82525050565b600061018082019050613596600083018f6134b2565b6135a3602083018e613547565b6135b0604083018d613547565b6135bd606083018c613547565b6135ca608083018b613547565b6135d760a083018a6134b2565b6135e460c08301896134b2565b6135f160e0830188613562565b6135ff610100830187613562565b61360d610120830186613562565b61361b610140830185613571565b613629610160830184613571565b9d9c50505050505050505050505050565b600082825260208201905092915050565b7f5573657220686173206e6f7420656e6f756768206d617267696e20746f20706560008201527f72666f726d2074686973206f7065726174696f6e000000000000000000000000602082015250565b60006136a760348361363a565b91506136b28261364b565b604082019050919050565b600060208201905081810360008301526136d68161369a565b9050919050565b600081905092915050565b50565b60006136f86000836136dd565b9150613703826136e8565b600082019050919050565b6000613719826136eb565b9150819050919050565b7f4661696c656420746f2073656e64204f6e650000000000000000000000000000600082015250565b600061375960128361363a565b915061376482613723565b602082019050919050565b600060208201905081810360008301526137888161374c565b9050919050565b7f4e487b7100000000000000000000000000000000000000000000000000000000600052601160045260246000fd5b60006137c98261335b565b91506137d48361335b565b9250827fffffffffffffffffffffffffffffffffffffffffffffffffffffffffffffffff038211156138095761380861378f565b5b828201905092915050565b7f4f7074696f6e2068617320616c72656479206578706972656400000000000000600082015250565b600061384a60198361363a565b915061385582613814565b602082019050919050565b600060208201905081810360008301526138798161383d565b9050919050565b7f4f7074696f6e20616c7265647920657865637574656400000000000000000000600082015250565b60006138b660168361363a565b91506138c182613880565b602082019050919050565b600060208201905081810360008301526138e5816138a9565b9050919050565b7f4f7074696f6e2063616e206e6f742062652072656d6f76656400000000000000600082015250565b600061392260198361363a565b915061392d826138ec565b602082019050919050565b6000602082019050818103600083015261395181613915565b9050919050565b7f43616c6c6572206973206e6f742074686520696e69746961746f720000000000600082015250565b600061398e601b8361363a565b915061399982613958565b602082019050919050565b600060208201905081810360008301526139bd81613981565b9050919050565b60006139cf8261335b565b91506139da8361335b565b9250828210156139ed576139ec61378f565b5b828203905092915050565b6000613a03826133fe565b9150613a0e836133fe565b92508160ff0483118215151615613a2857613a2761378f565b5b828202905092915050565b613a3c816134dc565b82525050565b6000604082019050613a576000830185613a33565b613a6460208301846134b2565b9392505050565b613a7481613556565b8114613a7f57600080fd5b50565b600081519050613a9181613a6b565b92915050565b600060208284031215613aad57613aac6132f8565b5b6000613abb84828501613a82565b91505092915050565b6000613acf8261335b565b9150613ada8361335b565b9250817fffffffffffffffffffffffffffffffffffffffffffffffffffffffffffffffff0483118215151615613b1357613b1261378f565b5b828202905092915050565b7f4e6f7420656e6f756768206d617267696e2063616c6c00000000000000000000600082015250565b6000613b5460168361363a565b9150613b5f82613b1e565b602082019050919050565b60006020820190508181036000830152613b8381613b47565b9050919050565b7f4e6f7420656e6f756768206d617267696e207075740000000000000000000000600082015250565b6000613bc060158361363a565b9150613bcb82613b8a565b602082019050919050565b60006020820190508181036000830152613bef81613bb3565b9050919050565b7f4661696c656420746f2073656e64204e61746976650000000000000000000000600082015250565b6000613c2c60158361363a565b9150613c3782613bf6565b602082019050919050565b60006020820190508181036000830152613c5b81613c1f565b9050919050565b6000819050919050565b6000613c87613c82613c7d846132fd565b613c62565b6132fd565b9050919050565b6000613c9982613c6c565b9050919050565b6000613cab82613c8e565b9050919050565b613cbb81613ca0565b82525050565b6000604082019050613cd66000830185613cb2565b613ce360208301846134b2565b9392505050565b6000606082019050613cff6000830186613a33565b613d0c6020830185613a33565b613d1960408301846134b2565b949350505050565b6000606082019050613d366000830186613cb2565b613d436020830185613cb2565b613d5060408301846134b2565b949350505050565b6000613d73613d6e613d69846133fe565b613c62565b61335b565b9050919050565b613d8381613d58565b82525050565b6000606082019050613d9e6000830186613a33565b613dab6020830185613a33565b613db86040830184613d7a565b94935050505056fe53686f756c6420646566696e65203020666f722063616c6c206f72203120666f7220707574a26469706673582212206b6e91267c7d6091d72a1b1544474f065a401eb21adbd73620a39d69068dd1be64736f6c634300080b0033",
  "immutableReferences": {},
  "source": "// SPDX-License-Identifier: MIT\r\npragma solidity ^0.8.2;\r\n\r\n//import \"./PriceConsumerV3.sol\";\r\nimport \"@openzeppelin/contracts/interfaces/IERC20.sol\";\r\n\r\n\r\ncontract OptionDex {\r\n\r\n    //one - one/usd\r\n    // constructor() {\r\n    //     priceFeed = AggregatorV3Interface(0xcEe686F89bc0dABAd95AEAAC980aE1d97A075FAD);\r\n    // }\r\n\r\n    // event OptionInit (uint optionId , address indexed initiator, string sidePosition, uint amountDeposited, uint premium, uint futureSpot , uint startDate, uint expirationDate);\r\n    // event PositionPurchased (uint optionId , address indexed initiator, address indexed buyer, string sidePosition, uint amountDeposited, uint premium, uint futureSpot , uint startDate, uint purchasedDate, uint expirationDate);\r\n    // event LiquidationOverCollateralization(uint optionId, address indexed initiator, address indexed buyer, string sidePosition, uint amountDeposited, uint premium, uint futureSpot , uint startDate, uint LiquidationDate,\r\n    // uint expirationDate, address indexed keeper);\r\n\r\n    uint id;//id asigned to each option\r\n    address internal Token;// CRG Token used in the Dapp\r\n    uint checkedPrice;//price verified by the chainlink priceFeed at the expiration date\r\n    uint expirationTime = 5760;//average blocks produced per day\r\n\r\n    // scope to avoid stack too deep errors\r\n    struct Option {\r\n        uint _id; //each option has an id\r\n        uint8 futurePrice;//future price. The price of the native token at the option expiration date\r\n        uint8 premium; //value paid by the buyer to the initiator to have the right over the option\r\n        uint8 amount; //the amount of native token sold/bought in the option\r\n        uint8 sidePosition; //call(0) or put(1) \r\n        uint256 placedDate;//date when the option is created\r\n        uint256 expirationDate; //the date when the option can be settled\r\n        bool premiumPaid;//control if the premium was paid\r\n        bool expired;//based on the expirationDate the option can be settled (if expired) or not\r\n        bool executed; //true if the option has been settled\r\n        // bool remainingAmountPaid;\r\n        address payable initiator; //who starts the option by selling a put or a call\r\n        address payable buyer; //who purchases the option from the initiator\r\n    }\r\n    //stores all the updated order in the system\r\n    mapping(uint => Option) public orderBook;\r\n    \r\n    //the user needs to deposit some native token to starts the operation\r\n    //user margin controls the margin to allow users to initiate options\r\n    //every deposit increases the margin, all option initialization reduces the margin\r\n    //when a option is not settled at the expiration date the initiator has its margin released\r\n    //to create call options the initiator needs to deposit the native token\r\n    //to create put options the initiator needs to deposit an stable coin\r\n    mapping(address => uint) public availableMarginCall;\r\n    mapping(address => uint) public allocatedMarginCall;\r\n\r\n    mapping(address => uint) public availableMarginPut;\r\n    mapping(address => uint) public allocatedMarginPut;\r\n    \r\n    //keep a track on the user position in the system \r\n    //mapping(address => mapping(uint => Option[])) public userPositions;\r\n\r\n    function SetexpirationTime(uint _expirationTime) public {\r\n        expirationTime = _expirationTime;\r\n    }\r\n\r\n    function getExpirationTime() public view returns (uint){\r\n        return expirationTime;\r\n    }\r\n\r\n    //receives the user deposit in the native token and updates the availableMarginCall\r\n    function deposit(uint _amount) payable public{\r\n        availableMarginCall[msg.sender] = availableMarginCall[msg.sender] + _amount; \r\n    }\r\n\r\n    // //only if the user has available margin, he can withdraw from the dapp\r\n    function withdrawMarginCall(address payable _to, uint _amount) public payable checkMarginCall(_amount) {\r\n        (bool sent, bytes memory data) = _to.call{value: _amount}(\"\");\r\n        require(sent, \"Failed to send One\");\r\n    }\r\n\r\n    function depositMarginPut(uint _amount) public{\r\n        IERC20(Token).transferFrom(msg.sender, address(this), _amount);\r\n        availableMarginPut[msg.sender] = availableMarginPut[msg.sender] + _amount;\r\n    }\r\n\r\n    function withdrawMarginPut(uint _amount) public checkMarginPut(_amount){\r\n        IERC20(Token).transfer(msg.sender, _amount);\r\n    }\r\n\r\n    //set the CRG Token to be used to purchase options\r\n    function setAcceptedToken(address _token) public {\r\n        Token = _token;\r\n    }\r\n\r\n    //Check if the user has available margin to perform operations\r\n    modifier checkMarginCall(uint amount){\r\n        require(amount <= availableMarginCall[msg.sender], 'User has not enough margin to perform this operation');\r\n        _;\r\n    }\r\n\r\n    modifier checkMarginPut(uint amount){\r\n        require(amount <= availableMarginPut[msg.sender], 'User has not enough margin to perform this operation');\r\n        _;\r\n    }\r\n\r\n    modifier notExecuted(uint _id){\r\n        require(!orderBook[_id].executed, 'Option alredy executed');\r\n        _;\r\n    }\r\n\r\n    modifier notExpired(uint _id){\r\n        require((orderBook[_id].expirationDate + 1000) <= block.number, 'Option has alredy expired'); //giving 1000 blocks bonus\r\n        _;\r\n    }\r\n\r\n    uint[] public options;//creates the options array that will be populated with the struct format in the initializePosition\r\n\r\n    //initialize a option position\r\n    function initializePosition(\r\n        uint8 _amount, \r\n        uint8 _sidePosition, \r\n        uint8 _premium, \r\n        uint8 _futurePrice, \r\n        uint256 _expirationDate\r\n        ) public {\r\n        \r\n        //each interaction increments the id\r\n        id = id + 1;\r\n\r\n        //instantiate the struct to create a option\r\n        Option memory option = Option (\r\n            \r\n            {\r\n                _id : id,\r\n                amount : _amount, //up to the user when create the option\r\n                sidePosition : _sidePosition, //up to the user when create the option\r\n                initiator : payable (msg.sender),\r\n                buyer: payable (0x0000000000000000000000000000000000000000),//the buyer is not set, will be set once some user buys the option. See function EnterPosition\r\n                premium : _premium, //up to the user when create the option\r\n                premiumPaid : false, //as the option is being created at this point there is no premium paid\r\n                futurePrice : _futurePrice, //up to the user when create the option\r\n                placedDate : block.number, //the block number when the option was created\r\n                expirationDate : _expirationDate * expirationTime, //up to the user when create the option. Need to informed in days.\r\n                expired : false, //just creat the option\r\n                executed: false //just creat the option\r\n                // remainingAmountPaid: false\r\n            }\r\n        );\r\n        if(_sidePosition == 0){\r\n            require(_amount <= availableMarginCall[msg.sender], 'Not enough margin call');\r\n            availableMarginCall[msg.sender] = availableMarginCall[msg.sender] - _amount; //updates the userMargin\r\n            allocatedMarginCall[msg.sender] = allocatedMarginCall[msg.sender] + _amount;\r\n        }else if(_sidePosition == 1){\r\n            require((_amount * _futurePrice) <= availableMarginPut[msg.sender], 'Not enough margin put');\r\n            availableMarginPut[msg.sender] = availableMarginPut[msg.sender] - (_amount * _futurePrice); //updates the userMargin\r\n            allocatedMarginPut[msg.sender] = allocatedMarginPut[msg.sender] + (_amount * _futurePrice);\r\n        }else {\r\n            string memory message ='Should define 0 for call or 1 for put';\r\n        }\r\n        \r\n        options.push(option._id); //update the options array by pushin the struct above\r\n        orderBook[id] = option; //update the orderBook with the option struct. This will be use in the next updates to have buy and sell functionality to the users       \r\n}\r\n    // internal function to send the CRG Tokens from buyer to initiator when the buyer purchases the option\r\n    // the frontend dapp needs to request to the buyer to approve this contract to spend the money on his behalf by\r\n    // callint the Approve function in the CRG Token (ERC20 standard)\r\n    function _buyingTheOption(address _buyer, address _initiator, uint8 _premium) internal{\r\n        IERC20(Token).transferFrom(_buyer, _initiator, _premium); //standard ERC20 transferFrom function\r\n    }\r\n\r\n    //called by the buyer to purchase an option    \r\n    function EnterPosition (uint _id) public notExpired(_id) notExecuted(_id){\r\n        Option memory _options = orderBook[_id];//initialize the option based on its recored in the orderBook\r\n        _options.initiator;//instatiate the initiator to receive the premium payment\r\n        _options.premium; //instatiate the premium value\r\n        _buyingTheOption(msg.sender, _options.initiator, _options.premium);//call the internal function to send the CRG Tokens (premium payment) to the initiator\r\n        _options.premiumPaid = true; //once Paid set the premium paid to true\r\n        _options.buyer = payable (msg.sender);//update the orderBook setting the buyer as msg.sender\r\n    }\r\n\r\n    //if the initiator wants to shutdown the option as long as no one purchased it\r\n    function shutDownOption(uint _id) public notExpired(_id) notExecuted(_id) {\r\n        require(!orderBook[_id].premiumPaid, 'Option can not be removed');\r\n        require(orderBook[_id].initiator == msg.sender, 'Caller is not the initiator');\r\n        Option memory _options = orderBook[_id];\r\n        _options.initiator = payable (0x0000000000000000000000000000000000000000);\r\n        _options.buyer = payable (0x0000000000000000000000000000000000000000);\r\n        if(orderBook[_id].sidePosition == 0){\r\n            availableMarginCall[msg.sender] = availableMarginCall[msg.sender] + _options.amount; //updates the userMargin\r\n            allocatedMarginCall[msg.sender] = allocatedMarginCall[msg.sender] - _options.amount;\r\n        }else if(orderBook[_id].sidePosition == 1){\r\n            availableMarginPut[msg.sender] = availableMarginPut[msg.sender] + ( _options.amount * _options.futurePrice); //updates the userMargin\r\n            allocatedMarginPut[msg.sender] = allocatedMarginPut[msg.sender] - ( _options.amount * _options.futurePrice);\r\n        }else {\r\n            string memory message = 'Error';\r\n        }\r\n    }\r\n\r\n    // Chainlink PriceConsumer Returns the latest price for the ONE/USD testNet\r\n    // shoud comment this function to run the dapp locally\r\n    // function getLatestPrice() public view virtual override returns (int) {\r\n    //     (\r\n    //         uint80 roundID, \r\n    //         int price,\r\n    //         uint startedAt,\r\n    //         uint timeStamp,\r\n    //         uint80 answeredInRound\r\n    //     ) = priceFeed.latestRoundData();\r\n    //     return price;\r\n    // }\r\n\r\n    // //update the state variable checkedPrice\r\n    // //shoud comment this function to run the dapp locally\r\n    // function updateCheckPrice() public returns (int){\r\n    //     checkedPrice = getLatestPrice();\r\n    //     return checkedPrice; \r\n    // }\r\n\r\n    //Use this function to run the dapp locally\r\n    function setCheckPrice(uint _inputedPrice) public{\r\n        checkedPrice = _inputedPrice;\r\n    }\r\n    \r\n    //Use this function to run the dapp locally\r\n    function updateCheckPrice() public view returns (uint){\r\n        return checkedPrice; \r\n    }\r\n\r\n    //at the expiration date if the buyer want to settle its option he needs to pay the remaining amount. Val\r\n    function calculatingRemaingAmount(uint _id) public view returns (uint){\r\n        Option memory _options = orderBook[_id];\r\n        _options.amount;\r\n        _options.premium;\r\n        _options.sidePosition;\r\n        if(_options.sidePosition == 0){\r\n            uint total = _options.amount * uint(checkedPrice);\r\n            uint remainingAmount =  total - _options.premium;\r\n            return remainingAmount;\r\n        }else if(_options.sidePosition == 1){\r\n            uint remainingAmount = _options.amount * uint(checkedPrice);\r\n            return remainingAmount;\r\n        }else{\r\n            string memory message = \"error\";\r\n        }\r\n    }\r\n\r\n    // On the settlement event, if the buyer settles the option he needs to pays the remaining amount to the initiator using CRG Token.\r\n    // At this poin the DAPP called the Approve function in the CRG Token\r\n    function _sendRemainingAmountToInitiator(uint _id) internal {\r\n        Option memory _options = orderBook[_id];\r\n        uint remainingAmount = calculatingRemaingAmount(_id);\r\n        if(_options.sidePosition == 0){\r\n            IERC20(Token).transferFrom(_options.buyer, _options.initiator, remainingAmount);\r\n        }else if(_options.sidePosition == 1){\r\n            (bool sent, bytes memory data) = address(this).call{value: remainingAmount}(\"\");\r\n            require(sent, \"Failed to send Native\");\r\n        }else{\r\n            string memory message = \"error\";\r\n        }       \r\n        _options.expired = true;\r\n        _options.executed = true;\r\n        // _options.remainingAmountPaid = true;\r\n    }\r\n\r\n    //if the buyer settles the option, the contract transfers the native token to the buyer(call) or ERC20(put)\r\n    function _releaseAssetsToBuyer(uint _id) internal {\r\n        Option memory _options = orderBook[_id];\r\n        \r\n        if(_options.sidePosition == 0){\r\n            (bool sent, bytes memory data) = address(this).call{value: _options.amount}(\"\");\r\n            require(sent, \"Failed to send Native\");\r\n            allocatedMarginCall[msg.sender] = allocatedMarginCall[msg.sender] - _options.amount;\r\n        }else if(_options.sidePosition == 1){\r\n            uint _value = _options.amount * _options.futurePrice;\r\n            IERC20(Token).transfer(_options.buyer, _value);\r\n            allocatedMarginPut[msg.sender] = allocatedMarginPut[msg.sender] - _value;\r\n        }else{\r\n            string memory message = 'error';\r\n        }\r\n    }\r\n\r\n    // in case a buyer paid the premium, however did not paid the remaining amount and the option is expired\r\n    // the initiator is able to release allocated margin\r\n    function releaseAllocatedMarginForAPremiumPaidExpiredOption(uint _id) public notExecuted(_id){\r\n        // require(orderBook[_id].remainingAmountPaid == true, 'Option can not be removed');\r\n        require(orderBook[_id].initiator == msg.sender, 'Caller is not the initiator');\r\n        Option memory _options = orderBook[_id];\r\n        orderBook[_id].executed = true;\r\n        \r\n        if(_options.sidePosition == 0){\r\n            (bool sent, bytes memory data) = _options.initiator.call{value: _options.amount}(\"\");\r\n            require(sent, \"Failed to send Native\");\r\n            allocatedMarginCall[msg.sender] = allocatedMarginCall[msg.sender] + _options.amount;\r\n        }else if(_options.sidePosition == 1){\r\n            uint _value = _options.amount * _options.futurePrice;\r\n            IERC20(Token).transfer(_options.initiator, _value);\r\n            allocatedMarginPut[msg.sender] = allocatedMarginPut[msg.sender] + _value;\r\n        }\r\n        _options.initiator = payable (0x0000000000000000000000000000000000000000);\r\n        _options.buyer = payable (0x0000000000000000000000000000000000000000);\r\n    }\r\n    \r\n    function Settlement (uint _id) public {\r\n        Option storage _options = orderBook[_id];\r\n        \r\n        uint _spotPrice = uint(updateCheckPrice());\r\n        \r\n        uint _value = _options.amount * _options.futurePrice;\r\n        if(_options.sidePosition == 0) {\r\n            if(_spotPrice >= _options.futurePrice){\r\n                _options.expired = true;\r\n                (bool sent, bytes memory data) = _options.initiator.call{value: _options.amount}(\"\");\r\n                require(sent, \"Failed to send Native\");\r\n                allocatedMarginCall[msg.sender] = allocatedMarginCall[msg.sender] - _options.amount;\r\n                availableMarginCall[msg.sender] = availableMarginCall[msg.sender] + _options.amount;\r\n            }else{\r\n                _options.expired = true;\r\n                _sendRemainingAmountToInitiator(_id);\r\n                _releaseAssetsToBuyer(id);\r\n            }\r\n        }else if(_options.sidePosition == 1){\r\n            if(_spotPrice >= _options.futurePrice){\r\n                _options.expired = true;\r\n                allocatedMarginPut[msg.sender] = allocatedMarginPut[msg.sender] - _value;\r\n                availableMarginPut[msg.sender] = availableMarginPut[msg.sender] + _value;\r\n                IERC20(Token).transfer(_options.initiator, _value);\r\n            }else{\r\n                _options.expired = true;\r\n                _sendRemainingAmountToInitiator(_id);\r\n                _releaseAssetsToBuyer(id);\r\n            }\r\n        }else{\r\n            string memory message = 'error';\r\n        }\r\n    }\r\n}\r\n\r\n\r\n",
  "sourcePath": "C:\\Users\\rafae\\Documents\\4. Estudos\\Projetos\\DeveloperBootCampConsensys\\blockchain-developer-bootcamp-final-project\\contracts\\OpDex_Draft.sol",
  "compiler": {
    "name": "solc",
    "version": "0.8.11+commit.d7f03943.Emscripten.clang"
  },
  "schemaVersion": "3.4.3",
  "updatedAt": "2022-01-13T21:03:10.168Z",
  "devdoc": {
    "kind": "dev",
    "methods": {},
    "version": 1
  },
  "userdoc": {
    "kind": "user",
    "methods": {},
    "version": 1
  }
}