{
  "contractName": "OptionDex",
  "abi": [
    {
      "anonymous": false,
      "inputs": [
        {
          "indexed": false,
          "internalType": "uint256",
          "name": "optionId",
          "type": "uint256"
        },
        {
          "indexed": true,
          "internalType": "address",
          "name": "initiator",
          "type": "address"
        },
        {
          "indexed": true,
          "internalType": "address",
          "name": "buyer",
          "type": "address"
        },
        {
          "indexed": false,
          "internalType": "string",
          "name": "sidePosition",
          "type": "string"
        },
        {
          "indexed": false,
          "internalType": "uint256",
          "name": "amountDeposited",
          "type": "uint256"
        },
        {
          "indexed": false,
          "internalType": "uint256",
          "name": "premium",
          "type": "uint256"
        },
        {
          "indexed": false,
          "internalType": "uint256",
          "name": "futureSpot",
          "type": "uint256"
        },
        {
          "indexed": false,
          "internalType": "uint256",
          "name": "startDate",
          "type": "uint256"
        },
        {
          "indexed": false,
          "internalType": "uint256",
          "name": "LiquidationDate",
          "type": "uint256"
        },
        {
          "indexed": false,
          "internalType": "uint256",
          "name": "expirationDate",
          "type": "uint256"
        },
        {
          "indexed": true,
          "internalType": "address",
          "name": "keeper",
          "type": "address"
        }
      ],
      "name": "LiquidationOverCollateralization",
      "type": "event"
    },
    {
      "anonymous": false,
      "inputs": [
        {
          "indexed": false,
          "internalType": "uint256",
          "name": "optionId",
          "type": "uint256"
        },
        {
          "indexed": true,
          "internalType": "address",
          "name": "initiator",
          "type": "address"
        },
        {
          "indexed": false,
          "internalType": "string",
          "name": "sidePosition",
          "type": "string"
        },
        {
          "indexed": false,
          "internalType": "uint256",
          "name": "amountDeposited",
          "type": "uint256"
        },
        {
          "indexed": false,
          "internalType": "uint256",
          "name": "premium",
          "type": "uint256"
        },
        {
          "indexed": false,
          "internalType": "uint256",
          "name": "futureSpot",
          "type": "uint256"
        },
        {
          "indexed": false,
          "internalType": "uint256",
          "name": "startDate",
          "type": "uint256"
        },
        {
          "indexed": false,
          "internalType": "uint256",
          "name": "expirationDate",
          "type": "uint256"
        }
      ],
      "name": "OptionInit",
      "type": "event"
    },
    {
      "anonymous": false,
      "inputs": [
        {
          "indexed": false,
          "internalType": "uint256",
          "name": "optionId",
          "type": "uint256"
        },
        {
          "indexed": true,
          "internalType": "address",
          "name": "initiator",
          "type": "address"
        },
        {
          "indexed": true,
          "internalType": "address",
          "name": "buyer",
          "type": "address"
        },
        {
          "indexed": false,
          "internalType": "string",
          "name": "sidePosition",
          "type": "string"
        },
        {
          "indexed": false,
          "internalType": "uint256",
          "name": "amountDeposited",
          "type": "uint256"
        },
        {
          "indexed": false,
          "internalType": "uint256",
          "name": "premium",
          "type": "uint256"
        },
        {
          "indexed": false,
          "internalType": "uint256",
          "name": "futureSpot",
          "type": "uint256"
        },
        {
          "indexed": false,
          "internalType": "uint256",
          "name": "startDate",
          "type": "uint256"
        },
        {
          "indexed": false,
          "internalType": "uint256",
          "name": "purchasedDate",
          "type": "uint256"
        },
        {
          "indexed": false,
          "internalType": "uint256",
          "name": "expirationDate",
          "type": "uint256"
        }
      ],
      "name": "PositionPurchased",
      "type": "event"
    },
    {
      "inputs": [],
      "name": "Buyer",
      "outputs": [
        {
          "internalType": "address",
          "name": "",
          "type": "address"
        }
      ],
      "stateMutability": "view",
      "type": "function",
      "constant": true
    },
    {
      "inputs": [],
      "name": "Initiator",
      "outputs": [
        {
          "internalType": "address",
          "name": "",
          "type": "address"
        }
      ],
      "stateMutability": "view",
      "type": "function",
      "constant": true
    },
    {
      "inputs": [],
      "name": "Kepper",
      "outputs": [
        {
          "internalType": "address",
          "name": "",
          "type": "address"
        }
      ],
      "stateMutability": "view",
      "type": "function",
      "constant": true
    },
    {
      "inputs": [
        {
          "internalType": "uint256",
          "name": "",
          "type": "uint256"
        }
      ],
      "name": "options",
      "outputs": [
        {
          "internalType": "uint256",
          "name": "id",
          "type": "uint256"
        },
        {
          "internalType": "uint256",
          "name": "amount",
          "type": "uint256"
        },
        {
          "internalType": "uint8",
          "name": "sidePosition",
          "type": "uint8"
        },
        {
          "internalType": "address payable",
          "name": "initiator",
          "type": "address"
        },
        {
          "internalType": "address payable",
          "name": "buyer",
          "type": "address"
        },
        {
          "internalType": "uint8",
          "name": "expirationDate",
          "type": "uint8"
        },
        {
          "internalType": "uint8",
          "name": "premium",
          "type": "uint8"
        },
        {
          "internalType": "bool",
          "name": "premiumPaid",
          "type": "bool"
        },
        {
          "internalType": "uint8",
          "name": "spotFuture",
          "type": "uint8"
        },
        {
          "internalType": "bool",
          "name": "expired",
          "type": "bool"
        }
      ],
      "stateMutability": "view",
      "type": "function",
      "constant": true
    },
    {
      "inputs": [
        {
          "internalType": "uint256",
          "name": "",
          "type": "uint256"
        }
      ],
      "name": "orderControls",
      "outputs": [
        {
          "internalType": "uint256",
          "name": "id",
          "type": "uint256"
        },
        {
          "internalType": "uint256",
          "name": "amount",
          "type": "uint256"
        },
        {
          "internalType": "uint8",
          "name": "sidePosition",
          "type": "uint8"
        },
        {
          "internalType": "address payable",
          "name": "initiator",
          "type": "address"
        },
        {
          "internalType": "address payable",
          "name": "buyer",
          "type": "address"
        },
        {
          "internalType": "uint8",
          "name": "expirationDate",
          "type": "uint8"
        },
        {
          "internalType": "uint8",
          "name": "premium",
          "type": "uint8"
        },
        {
          "internalType": "bool",
          "name": "premiumPaid",
          "type": "bool"
        },
        {
          "internalType": "uint8",
          "name": "spotFuture",
          "type": "uint8"
        },
        {
          "internalType": "bool",
          "name": "expired",
          "type": "bool"
        }
      ],
      "stateMutability": "view",
      "type": "function",
      "constant": true
    },
    {
      "inputs": [
        {
          "internalType": "address",
          "name": "",
          "type": "address"
        },
        {
          "internalType": "uint256",
          "name": "",
          "type": "uint256"
        }
      ],
      "name": "premiumPaid",
      "outputs": [
        {
          "internalType": "bool",
          "name": "",
          "type": "bool"
        }
      ],
      "stateMutability": "view",
      "type": "function",
      "constant": true
    },
    {
      "inputs": [
        {
          "internalType": "uint256",
          "name": "",
          "type": "uint256"
        }
      ],
      "name": "remainingValueDeposited",
      "outputs": [
        {
          "internalType": "bool",
          "name": "",
          "type": "bool"
        }
      ],
      "stateMutability": "view",
      "type": "function",
      "constant": true
    },
    {
      "inputs": [
        {
          "internalType": "address",
          "name": "",
          "type": "address"
        }
      ],
      "name": "userMargin",
      "outputs": [
        {
          "internalType": "uint256",
          "name": "",
          "type": "uint256"
        }
      ],
      "stateMutability": "view",
      "type": "function",
      "constant": true
    },
    {
      "inputs": [
        {
          "internalType": "address",
          "name": "",
          "type": "address"
        },
        {
          "internalType": "uint256",
          "name": "",
          "type": "uint256"
        },
        {
          "internalType": "uint256",
          "name": "",
          "type": "uint256"
        }
      ],
      "name": "userPositions",
      "outputs": [
        {
          "internalType": "uint256",
          "name": "id",
          "type": "uint256"
        },
        {
          "internalType": "uint256",
          "name": "amount",
          "type": "uint256"
        },
        {
          "internalType": "uint8",
          "name": "sidePosition",
          "type": "uint8"
        },
        {
          "internalType": "address payable",
          "name": "initiator",
          "type": "address"
        },
        {
          "internalType": "address payable",
          "name": "buyer",
          "type": "address"
        },
        {
          "internalType": "uint8",
          "name": "expirationDate",
          "type": "uint8"
        },
        {
          "internalType": "uint8",
          "name": "premium",
          "type": "uint8"
        },
        {
          "internalType": "bool",
          "name": "premiumPaid",
          "type": "bool"
        },
        {
          "internalType": "uint8",
          "name": "spotFuture",
          "type": "uint8"
        },
        {
          "internalType": "bool",
          "name": "expired",
          "type": "bool"
        }
      ],
      "stateMutability": "view",
      "type": "function",
      "constant": true
    },
    {
      "inputs": [],
      "name": "deposit",
      "outputs": [],
      "stateMutability": "payable",
      "type": "function",
      "payable": true
    },
    {
      "inputs": [
        {
          "internalType": "uint256",
          "name": "_id",
          "type": "uint256"
        },
        {
          "internalType": "uint256",
          "name": "_amount",
          "type": "uint256"
        },
        {
          "internalType": "uint8",
          "name": "_sidePosition",
          "type": "uint8"
        },
        {
          "internalType": "uint8",
          "name": "_premium",
          "type": "uint8"
        },
        {
          "internalType": "uint8",
          "name": "_spotFuture",
          "type": "uint8"
        },
        {
          "internalType": "uint8",
          "name": "_expirationDate",
          "type": "uint8"
        }
      ],
      "name": "initializePosition",
      "outputs": [],
      "stateMutability": "nonpayable",
      "type": "function"
    },
    {
      "inputs": [
        {
          "internalType": "address",
          "name": "_token",
          "type": "address"
        }
      ],
      "name": "setAcceptedToken",
      "outputs": [],
      "stateMutability": "nonpayable",
      "type": "function"
    },
    {
      "inputs": [
        {
          "internalType": "uint256",
          "name": "_id",
          "type": "uint256"
        },
        {
          "internalType": "uint8",
          "name": "_premiumToPay",
          "type": "uint8"
        }
      ],
      "name": "EnterPosition",
      "outputs": [],
      "stateMutability": "payable",
      "type": "function",
      "payable": true
    },
    {
      "inputs": [],
      "name": "updateCheckPrice",
      "outputs": [
        {
          "internalType": "uint256",
          "name": "",
          "type": "uint256"
        }
      ],
      "stateMutability": "nonpayable",
      "type": "function"
    },
    {
      "inputs": [
        {
          "internalType": "uint256",
          "name": "_id",
          "type": "uint256"
        }
      ],
      "name": "calculatingRemaingAmount",
      "outputs": [
        {
          "internalType": "uint256",
          "name": "",
          "type": "uint256"
        }
      ],
      "stateMutability": "view",
      "type": "function",
      "constant": true
    },
    {
      "inputs": [
        {
          "internalType": "uint256",
          "name": "_id",
          "type": "uint256"
        }
      ],
      "name": "Settlement",
      "outputs": [],
      "stateMutability": "nonpayable",
      "type": "function"
    }
  ],
  "bytecode": "0x608060405234801561001057600080fd5b50611a8a806100206000396000f3fe6080604052600436106100f35760003560e01c80637a70845d1161008a578063ccf59aca11610059578063ccf59aca1461034a578063d0e30db014610387578063de2d771014610391578063edae2a83146103ce576100f3565b80637a70845d1461027357806385d9703a1461029c578063a1c12e6b146102e2578063c32ec33e1461030d576100f3565b80634b7cfc50116100c65780634b7cfc50146101ae57806365d4dbe2146101d9578063684a61bb146102045780637487f5281461024a576100f3565b80630602715b146100f8578063175e488e146101215780632dd1a5341461014c578063409e220514610168575b600080fd5b34801561010457600080fd5b5061011f600480360381019061011a919061138d565b61040b565b005b34801561012d57600080fd5b506101366108c4565b604051610143919061145b565b60405180910390f35b61016660048036038101906101619190611476565b6108ea565b005b34801561017457600080fd5b5061018f600480360381019061018a91906114b6565b6109fa565b6040516101a59a9998979695949392919061153d565b60405180910390f35b3480156101ba57600080fd5b506101c3610aec565b6040516101d0919061145b565b60405180910390f35b3480156101e557600080fd5b506101ee610b10565b6040516101fb91906115d9565b60405180910390f35b34801561021057600080fd5b5061022b60048036038101906102269190611620565b610b4b565b6040516102419a9998979695949392919061153d565b60405180910390f35b34801561025657600080fd5b50610271600480360381019061026c9190611673565b610c57565b005b34801561027f57600080fd5b5061029a600480360381019061029591906114b6565b610c9b565b005b3480156102a857600080fd5b506102c360048036038101906102be91906114b6565b610da0565b6040516102d99a9998979695949392919061153d565b60405180910390f35b3480156102ee57600080fd5b506102f7610e82565b604051610304919061145b565b60405180910390f35b34801561031957600080fd5b50610334600480360381019061032f9190611673565b610ea8565b60405161034191906115d9565b60405180910390f35b34801561035657600080fd5b50610371600480360381019061036c91906116a0565b610ec0565b60405161037e91906116e0565b60405180910390f35b61038f610eef565b005b34801561039d57600080fd5b506103b860048036038101906103b391906114b6565b610f7f565b6040516103c591906116e0565b60405180910390f35b3480156103da57600080fd5b506103f560048036038101906103f091906114b6565b610f9f565b60405161040291906115d9565b60405180910390f35b84600560003373ffffffffffffffffffffffffffffffffffffffff1673ffffffffffffffffffffffffffffffffffffffff1681526020019081526020016000205481111561048e576040517f08c379a00000000000000000000000000000000000000000000000000000000081526004016104859061177e565b60405180910390fd5b60006040518061014001604052808981526020018881526020018760ff1681526020013373ffffffffffffffffffffffffffffffffffffffff168152602001600073ffffffffffffffffffffffffffffffffffffffff1681526020018460ff1681526020018660ff1681526020016000151581526020018560ff16815260200160001515815250905086600560003373ffffffffffffffffffffffffffffffffffffffff1673ffffffffffffffffffffffffffffffffffffffff1681526020019081526020016000205461056291906117cd565b600560003373ffffffffffffffffffffffffffffffffffffffff1673ffffffffffffffffffffffffffffffffffffffff168152602001908152602001600020819055506009819080600181540180825580915050600190039060005260206000209060040201600090919091909150600082015181600001556020820151816001015560408201518160020160006101000a81548160ff021916908360ff16021790555060608201518160020160016101000a81548173ffffffffffffffffffffffffffffffffffffffff021916908373ffffffffffffffffffffffffffffffffffffffff16021790555060808201518160030160006101000a81548173ffffffffffffffffffffffffffffffffffffffff021916908373ffffffffffffffffffffffffffffffffffffffff16021790555060a08201518160030160146101000a81548160ff021916908360ff16021790555060c08201518160030160156101000a81548160ff021916908360ff16021790555060e08201518160030160166101000a81548160ff0219169083151502179055506101008201518160030160176101000a81548160ff021916908360ff1602179055506101208201518160030160186101000a81548160ff021916908315150217905550505080600460008a8152602001908152602001600020600082015181600001556020820151816001015560408201518160020160006101000a81548160ff021916908360ff16021790555060608201518160020160016101000a81548173ffffffffffffffffffffffffffffffffffffffff021916908373ffffffffffffffffffffffffffffffffffffffff16021790555060808201518160030160006101000a81548173ffffffffffffffffffffffffffffffffffffffff021916908373ffffffffffffffffffffffffffffffffffffffff16021790555060a08201518160030160146101000a81548160ff021916908360ff16021790555060c08201518160030160156101000a81548160ff021916908360ff16021790555060e08201518160030160166101000a81548160ff0219169083151502179055506101008201518160030160176101000a81548160ff021916908360ff1602179055506101208201518160030160186101000a81548160ff0219169083151502179055509050505050505050505050565b600260009054906101000a900473ffffffffffffffffffffffffffffffffffffffff1681565b600060046000848152602001908152602001600020905060008160020160019054906101000a900473ffffffffffffffffffffffffffffffffffffffff16905060008260030160159054906101000a900460ff1690508360ff168160ff1614610988576040517f08c379a000000000000000000000000000000000000000000000000000000000815260040161097f9061184d565b60405180910390fd5b610993338386610ffa565b60018360030160166101000a81548160ff021916908315150217905550338360030160006101000a81548173ffffffffffffffffffffffffffffffffffffffff021916908373ffffffffffffffffffffffffffffffffffffffff1602179055505050505050565b60098181548110610a0a57600080fd5b90600052602060002090600402016000915090508060000154908060010154908060020160009054906101000a900460ff16908060020160019054906101000a900473ffffffffffffffffffffffffffffffffffffffff16908060030160009054906101000a900473ffffffffffffffffffffffffffffffffffffffff16908060030160149054906101000a900460ff16908060030160159054906101000a900460ff16908060030160169054906101000a900460ff16908060030160179054906101000a900460ff16908060030160189054906101000a900460ff1690508a565b60008054906101000a900473ffffffffffffffffffffffffffffffffffffffff1681565b600080600a905080600a60006101000a81548160ff021916908360ff160217905550600a60009054906101000a900460ff1660ff1691505090565b60076020528260005260406000206020528160005260406000208181548110610b7357600080fd5b906000526020600020906004020160009250925050508060000154908060010154908060020160009054906101000a900460ff16908060020160019054906101000a900473ffffffffffffffffffffffffffffffffffffffff16908060030160009054906101000a900473ffffffffffffffffffffffffffffffffffffffff16908060030160149054906101000a900460ff16908060030160159054906101000a900460ff16908060030160169054906101000a900460ff16908060030160179054906101000a900460ff16908060030160189054906101000a900460ff1690508a565b80600360006101000a81548173ffffffffffffffffffffffffffffffffffffffff021916908373ffffffffffffffffffffffffffffffffffffffff16021790555050565b600060046000838152602001908152602001600020905060008160030160179054906101000a900460ff169050600a8060006101000a81548160ff021916908360ff160217905550600a60009054906101000a900460ff1660ff168160ff1610610d7d57600115156008600085815260200190815260200160002060009054906101000a900460ff16151514610d66576040517f08c379a0000000000000000000000000000000000000000000000000000000008152600401610d5d906118df565b60405180910390fd5b610d6f836110a2565b610d78836111cb565b610d9b565b60018260030160186101000a81548160ff0219169083151502179055505b505050565b60046020528060005260406000206000915090508060000154908060010154908060020160009054906101000a900460ff16908060020160019054906101000a900473ffffffffffffffffffffffffffffffffffffffff16908060030160009054906101000a900473ffffffffffffffffffffffffffffffffffffffff16908060030160149054906101000a900460ff16908060030160159054906101000a900460ff16908060030160169054906101000a900460ff16908060030160179054906101000a900460ff16908060030160189054906101000a900460ff1690508a565b600160009054906101000a900473ffffffffffffffffffffffffffffffffffffffff1681565b60056020528060005260406000206000915090505481565b60066020528160005260406000206020528060005260406000206000915091509054906101000a900460ff1681565b34600560003373ffffffffffffffffffffffffffffffffffffffff1673ffffffffffffffffffffffffffffffffffffffff16815260200190815260200160002054610f3a91906118ff565b600560003373ffffffffffffffffffffffffffffffffffffffff1673ffffffffffffffffffffffffffffffffffffffff16815260200190815260200160002081905550565b60086020528060005260406000206000915054906101000a900460ff1681565b60008060046000848152602001908152602001600020905060008160030160179054906101000a900460ff169050600081600a60009054906101000a900460ff16610fea9190611955565b90508060ff169350505050919050565b600360009054906101000a900473ffffffffffffffffffffffffffffffffffffffff1673ffffffffffffffffffffffffffffffffffffffff166323b872dd8484846040518463ffffffff1660e01b8152600401611059939291906119c4565b6020604051808303816000875af1158015611078573d6000803e3d6000fd5b505050506040513d601f19601f8201168201806040525081019061109c9190611a27565b50505050565b600060046000838152602001908152602001600020905060008160030160009054906101000a900473ffffffffffffffffffffffffffffffffffffffff16905060008260020160019054906101000a900473ffffffffffffffffffffffffffffffffffffffff16905060008360030160159054906101000a900460ff169050600360009054906101000a900473ffffffffffffffffffffffffffffffffffffffff1673ffffffffffffffffffffffffffffffffffffffff166323b872dd8484846040518463ffffffff1660e01b8152600401611180939291906119c4565b6020604051808303816000875af115801561119f573d6000803e3d6000fd5b505050506040513d601f19601f820116820180604052508101906111c39190611a27565b505050505050565b600060046000838152602001908152602001600020905060008160010154905060008260030160009054906101000a900473ffffffffffffffffffffffffffffffffffffffff16905060008360020160019054906101000a900473ffffffffffffffffffffffffffffffffffffffff1690508173ffffffffffffffffffffffffffffffffffffffff166108fc849081150290604051600060405180830381858888f19350505050158015611283573d6000803e3d6000fd5b5082600560008373ffffffffffffffffffffffffffffffffffffffff1673ffffffffffffffffffffffffffffffffffffffff168152602001908152602001600020546112cf91906117cd565b600560008373ffffffffffffffffffffffffffffffffffffffff1673ffffffffffffffffffffffffffffffffffffffff168152602001908152602001600020819055505050505050565b600080fd5b6000819050919050565b6113318161131e565b811461133c57600080fd5b50565b60008135905061134e81611328565b92915050565b600060ff82169050919050565b61136a81611354565b811461137557600080fd5b50565b60008135905061138781611361565b92915050565b60008060008060008060c087890312156113aa576113a9611319565b5b60006113b889828a0161133f565b96505060206113c989828a0161133f565b95505060406113da89828a01611378565b94505060606113eb89828a01611378565b93505060806113fc89828a01611378565b92505060a061140d89828a01611378565b9150509295509295509295565b600073ffffffffffffffffffffffffffffffffffffffff82169050919050565b60006114458261141a565b9050919050565b6114558161143a565b82525050565b6000602082019050611470600083018461144c565b92915050565b6000806040838503121561148d5761148c611319565b5b600061149b8582860161133f565b92505060206114ac85828601611378565b9150509250929050565b6000602082840312156114cc576114cb611319565b5b60006114da8482850161133f565b91505092915050565b6114ec8161131e565b82525050565b6114fb81611354565b82525050565b600061150c8261141a565b9050919050565b61151c81611501565b82525050565b60008115159050919050565b61153781611522565b82525050565b600061014082019050611553600083018d6114e3565b611560602083018c6114e3565b61156d604083018b6114f2565b61157a606083018a611513565b6115876080830189611513565b61159460a08301886114f2565b6115a160c08301876114f2565b6115ae60e083018661152e565b6115bc6101008301856114f2565b6115ca61012083018461152e565b9b9a5050505050505050505050565b60006020820190506115ee60008301846114e3565b92915050565b6115fd8161143a565b811461160857600080fd5b50565b60008135905061161a816115f4565b92915050565b60008060006060848603121561163957611638611319565b5b60006116478682870161160b565b93505060206116588682870161133f565b92505060406116698682870161133f565b9150509250925092565b60006020828403121561168957611688611319565b5b60006116978482850161160b565b91505092915050565b600080604083850312156116b7576116b6611319565b5b60006116c58582860161160b565b92505060206116d68582860161133f565b9150509250929050565b60006020820190506116f5600083018461152e565b92915050565b600082825260208201905092915050565b7f5573657220686173206e6f7420656e6f756768206d617267696e20746f20706560008201527f72666f726d2074686973206f7065726174696f6e000000000000000000000000602082015250565b60006117686034836116fb565b91506117738261170c565b604082019050919050565b600060208201905081810360008301526117978161175b565b9050919050565b7f4e487b7100000000000000000000000000000000000000000000000000000000600052601160045260246000fd5b60006117d88261131e565b91506117e38361131e565b9250828210156117f6576117f561179e565b5b828203905092915050565b7f5072656d69756d2077726f6e6700000000000000000000000000000000000000600082015250565b6000611837600d836116fb565b915061184282611801565b602082019050919050565b600060208201905081810360008301526118668161182a565b9050919050565b7f4275796572206e6565647320746f206465706f736974207468652072656d616960008201527f6e696e672076616c756500000000000000000000000000000000000000000000602082015250565b60006118c9602a836116fb565b91506118d48261186d565b604082019050919050565b600060208201905081810360008301526118f8816118bc565b9050919050565b600061190a8261131e565b91506119158361131e565b9250827fffffffffffffffffffffffffffffffffffffffffffffffffffffffffffffffff0382111561194a5761194961179e565b5b828201905092915050565b600061196082611354565b915061196b83611354565b92508282101561197e5761197d61179e565b5b828203905092915050565b6000819050919050565b60006119ae6119a96119a484611354565b611989565b61131e565b9050919050565b6119be81611993565b82525050565b60006060820190506119d9600083018661144c565b6119e6602083018561144c565b6119f360408301846119b5565b949350505050565b611a0481611522565b8114611a0f57600080fd5b50565b600081519050611a21816119fb565b92915050565b600060208284031215611a3d57611a3c611319565b5b6000611a4b84828501611a12565b9150509291505056fea2646970667358221220df1213df5016e481579bca1712095af38acd05752eea02ef5517890111405d1e64736f6c634300080b0033",
  "immutableReferences": {},
  "source": "// SPDX-License-Identifier: MIT\r\npragma solidity ^0.8.2;\r\n\r\nimport \"@openzeppelin/contracts/interfaces/IERC20.sol\";\r\n\r\ncontract OptionDex{\r\n\r\n    event OptionInit (uint optionId , address indexed initiator, string sidePosition, uint amountDeposited, uint premium, uint futureSpot , uint startDate, uint expirationDate);\r\n    event PositionPurchased (uint optionId , address indexed initiator, address indexed buyer, string sidePosition, uint amountDeposited, uint premium, uint futureSpot , uint startDate, uint purchasedDate, uint expirationDate);\r\n    event LiquidationOverCollateralization(uint optionId, address indexed initiator, address indexed buyer, string sidePosition, uint amountDeposited, uint premium, uint futureSpot , uint startDate, uint LiquidationDate,\r\n    uint expirationDate, address indexed keeper);\r\n\r\n    address public Initiator;\r\n    address public Buyer;\r\n    address public Kepper;\r\n    address internal Token;\r\n    \r\n    struct Option {\r\n        uint id;\r\n        uint amount;\r\n        uint8 sidePosition; //call(0) or put(1)\r\n        address payable initiator;\r\n        address payable buyer;\r\n        uint8 expirationDate;\r\n        uint8 premium;\r\n        bool premiumPaid;\r\n        uint8 spotFuture;\r\n        bool expired;\r\n    }\r\n    mapping(uint => Option) public orderControls;\r\n    mapping(address => uint) public userMargin;\r\n    mapping(address => mapping(uint =>bool)) public premiumPaid; // tracking the premium paid by the buyer for a specific option\r\n    mapping(address => mapping(uint => Option[])) public userPositions;// trackin the position of a user inside the platform several operations\r\n    mapping(uint => bool) public remainingValueDeposited;\r\n\r\n    Option[] public options;\r\n\r\n        function deposit() payable public{\r\n        userMargin[msg.sender] = userMargin[msg.sender] + msg.value; \r\n    }\r\n\r\n    modifier checkMargin(uint amount){\r\n        require(amount <= userMargin[msg.sender], 'User has not enough margin to perform this operation');\r\n        _;\r\n    }\r\n\r\n    function initializePosition(\r\n        uint _id,\r\n        uint _amount, // quantity of options\r\n        uint8 _sidePosition, \r\n        uint8 _premium, //option price\r\n        uint8 _spotFuture, \r\n        uint8 _expirationDate\r\n        ) public checkMargin(_amount){\r\n\r\n        Option memory option = Option (\r\n            {\r\n                id : _id,\r\n                amount : _amount,\r\n                sidePosition : _sidePosition,\r\n                initiator : payable (msg.sender),\r\n                buyer: payable (0x0000000000000000000000000000000000000000),\r\n                premium : _premium,\r\n                premiumPaid : false,\r\n                spotFuture : _spotFuture,\r\n                expirationDate : _expirationDate,\r\n                expired : false\r\n            }\r\n        );\r\n        \r\n        userMargin[msg.sender] = userMargin[msg.sender] - _amount;\r\n        options.push(option);\r\n        orderControls[_id] = option;\r\n}\r\n\r\n    function setAcceptedToken(address _token) public {\r\n        Token = _token;\r\n    }\r\n\r\n    function _buyingTheOption(address _buyer, address _initiator, uint8 _premium) internal{\r\n        IERC20(Token).transferFrom(_buyer, _initiator, _premium);\r\n    }\r\n\r\n    function EnterPosition (uint _id, uint8 _premiumToPay) payable public {\r\n        Option storage _options = orderControls[_id];\r\n        address _initiator = _options.initiator;\r\n        uint8 _premium = _options.premium;\r\n        require(_premium == _premiumToPay, 'Premium wrong');\r\n        _buyingTheOption(msg.sender, _initiator, _premiumToPay);\r\n        _options.premiumPaid = true;\r\n        _options.buyer = payable (msg.sender);\r\n        \r\n    }\r\n\r\n    uint8 checkedPrice;\r\n    function updateCheckPrice() public returns (uint){\r\n        uint8 _checkedPrice = 10;\r\n        checkedPrice = _checkedPrice;\r\n        return checkedPrice; \r\n    }\r\n\r\n\r\n    function calculatingRemaingAmount(uint _id) public view returns (uint){\r\n        Option storage _options = orderControls[_id];\r\n        uint8 spotPrice = _options.spotFuture;\r\n        uint8 remainingAmount = checkedPrice - spotPrice; \r\n        return remainingAmount;\r\n    }\r\n\r\n    function _sendRemainingValueToInitiator(uint _id) internal {\r\n        Option storage _options = orderControls[_id];\r\n        address _buyer = _options.buyer;\r\n        address _initiator = _options.initiator;\r\n        uint8 _premium = _options.premium;\r\n        IERC20(Token).transferFrom(_buyer, _initiator, _premium);\r\n        }\r\n\r\n    function _releaseAssetsToBuyer(uint _id) internal {\r\n        Option storage _options = orderControls[_id];\r\n        uint _amount = _options.amount;\r\n        address payable _buyer = _options.buyer;\r\n        address payable _initiator = _options.initiator;\r\n        _buyer.transfer(_amount);\r\n        userMargin[_initiator] = userMargin[_initiator] - _amount;\r\n        }\r\n    \r\n    function Settlement (uint _id) public {\r\n        Option storage _options = orderControls[_id];\r\n        uint8 spotPrice = _options.spotFuture;\r\n        checkedPrice = 10;\r\n        if(spotPrice >= checkedPrice){\r\n            require(remainingValueDeposited[_id] == true, 'Buyer needs to deposit the remaining value');\r\n            _sendRemainingValueToInitiator(_id);\r\n            _releaseAssetsToBuyer(_id);\r\n        }else{\r\n            _options.expired = true ;\r\n        }\r\n       \r\n\r\n    }\r\n\r\n\r\n}",
  "sourcePath": "C:\\Users\\rafae\\Documents\\4. Estudos\\Projetos\\DeveloperBootCampConsensys\\blockchain-developer-bootcamp-final-project\\contracts\\OptionDex.sol",
  "compiler": {
    "name": "solc",
    "version": "0.8.11+commit.d7f03943.Emscripten.clang"
  },
  "schemaVersion": "3.4.3",
  "updatedAt": "2022-01-08T00:34:12.875Z",
  "networkType": "ethereum",
  "devdoc": {
    "kind": "dev",
    "methods": {},
    "version": 1
  },
  "userdoc": {
    "kind": "user",
    "methods": {},
    "version": 1
  }
}